{
  "_format": "hh-sol-artifact-1",
  "contractName": "SupplyChain",
  "sourceName": "contracts/Supplychain.sol",
  "abi": [
    {
      "inputs": [],
      "stateMutability": "nonpayable",
      "type": "constructor"
    },
    {
      "anonymous": false,
      "inputs": [
        {
          "indexed": true,
          "internalType": "uint256",
          "name": "id",
          "type": "uint256"
        },
        {
          "indexed": false,
          "internalType": "string",
          "name": "name",
          "type": "string"
        },
        {
          "indexed": true,
          "internalType": "address",
          "name": "supplierAddr",
          "type": "address"
        },
        {
          "indexed": false,
          "internalType": "string",
          "name": "category",
          "type": "string"
        },
        {
          "indexed": false,
          "internalType": "uint256",
          "name": "timestamp",
          "type": "uint256"
        }
      ],
      "name": "IngredientAdded",
      "type": "event"
    },
    {
      "anonymous": false,
      "inputs": [
        {
          "indexed": true,
          "internalType": "uint256",
          "name": "id",
          "type": "uint256"
        },
        {
          "indexed": true,
          "internalType": "address",
          "name": "supplier",
          "type": "address"
        },
        {
          "indexed": false,
          "internalType": "uint256",
          "name": "timestamp",
          "type": "uint256"
        }
      ],
      "name": "ProductApproved",
      "type": "event"
    },
    {
      "anonymous": false,
      "inputs": [
        {
          "indexed": true,
          "internalType": "uint256",
          "name": "id",
          "type": "uint256"
        },
        {
          "indexed": false,
          "internalType": "string",
          "name": "name",
          "type": "string"
        },
        {
          "indexed": false,
          "internalType": "string",
          "name": "batchId",
          "type": "string"
        },
        {
          "indexed": false,
          "internalType": "address[]",
          "name": "suppliers",
          "type": "address[]"
        },
        {
          "indexed": false,
          "internalType": "uint256",
          "name": "timestamp",
          "type": "uint256"
        }
      ],
      "name": "ProductCreated",
      "type": "event"
    },
    {
      "anonymous": false,
      "inputs": [
        {
          "indexed": true,
          "internalType": "uint256",
          "name": "id",
          "type": "uint256"
        },
        {
          "indexed": false,
          "internalType": "string",
          "name": "name",
          "type": "string"
        },
        {
          "indexed": false,
          "internalType": "string",
          "name": "batchId",
          "type": "string"
        },
        {
          "indexed": false,
          "internalType": "uint256",
          "name": "timestamp",
          "type": "uint256"
        }
      ],
      "name": "ProductFullyApproved",
      "type": "event"
    },
    {
      "anonymous": false,
      "inputs": [
        {
          "indexed": true,
          "internalType": "uint256",
          "name": "id",
          "type": "uint256"
        },
        {
          "indexed": true,
          "internalType": "address",
          "name": "supplier",
          "type": "address"
        },
        {
          "indexed": false,
          "internalType": "uint256",
          "name": "timestamp",
          "type": "uint256"
        }
      ],
      "name": "ProductRejected",
      "type": "event"
    },
    {
      "inputs": [
        {
          "internalType": "string",
          "name": "name",
          "type": "string"
        },
        {
          "internalType": "address",
          "name": "supplierAddr",
          "type": "address"
        },
        {
          "internalType": "string",
          "name": "category",
          "type": "string"
        }
      ],
      "name": "addIngredient",
      "outputs": [
        {
          "internalType": "uint256",
          "name": "",
          "type": "uint256"
        }
      ],
      "stateMutability": "nonpayable",
      "type": "function"
    },
    {
      "inputs": [
        {
          "internalType": "uint256",
          "name": "",
          "type": "uint256"
        },
        {
          "internalType": "uint256",
          "name": "",
          "type": "uint256"
        }
      ],
      "name": "approvalHistory",
      "outputs": [
        {
          "internalType": "address",
          "name": "supplier",
          "type": "address"
        },
        {
          "internalType": "uint8",
          "name": "status",
          "type": "uint8"
        },
        {
          "internalType": "uint256",
          "name": "respondedAt",
          "type": "uint256"
        }
      ],
      "stateMutability": "view",
      "type": "function"
    },
    {
      "inputs": [
        {
          "internalType": "uint256",
          "name": "",
          "type": "uint256"
        },
        {
          "internalType": "address",
          "name": "",
          "type": "address"
        }
      ],
      "name": "approvals",
      "outputs": [
        {
          "internalType": "uint8",
          "name": "",
          "type": "uint8"
        }
      ],
      "stateMutability": "view",
      "type": "function"
    },
    {
      "inputs": [
        {
          "internalType": "uint256",
          "name": "pId",
          "type": "uint256"
        }
      ],
      "name": "approveProduct",
      "outputs": [],
      "stateMutability": "nonpayable",
      "type": "function"
    },
    {
      "inputs": [
        {
          "internalType": "string",
          "name": "name",
          "type": "string"
        },
        {
          "internalType": "string",
          "name": "batchId",
          "type": "string"
        },
        {
          "internalType": "uint256[]",
          "name": "ingredientIds",
          "type": "uint256[]"
        }
      ],
      "name": "createProduct",
      "outputs": [
        {
          "internalType": "uint256",
          "name": "",
          "type": "uint256"
        }
      ],
      "stateMutability": "nonpayable",
      "type": "function"
    },
    {
      "inputs": [],
      "name": "getAllAvailableIngredients",
      "outputs": [
        {
          "internalType": "uint256[]",
          "name": "ids",
          "type": "uint256[]"
        },
        {
          "internalType": "string[]",
          "name": "names",
          "type": "string[]"
        },
        {
          "internalType": "string[]",
          "name": "categories",
          "type": "string[]"
        },
        {
          "internalType": "address[]",
          "name": "supplierAddresses",
          "type": "address[]"
        }
      ],
      "stateMutability": "view",
      "type": "function"
    },
    {
      "inputs": [],
      "name": "getAllProducts",
      "outputs": [
        {
          "internalType": "uint256[]",
          "name": "",
          "type": "uint256[]"
        }
      ],
      "stateMutability": "view",
      "type": "function"
    },
    {
      "inputs": [],
      "name": "getApprovedProducts",
      "outputs": [
        {
          "internalType": "uint256[]",
          "name": "",
          "type": "uint256[]"
        }
      ],
      "stateMutability": "view",
      "type": "function"
    },
    {
      "inputs": [],
      "name": "getCounts",
      "outputs": [
        {
          "internalType": "uint256",
          "name": "ingredients_",
          "type": "uint256"
        },
        {
          "internalType": "uint256",
          "name": "products_",
          "type": "uint256"
        }
      ],
      "stateMutability": "view",
      "type": "function"
    },
    {
      "inputs": [
        {
          "internalType": "uint256",
          "name": "id",
          "type": "uint256"
        }
      ],
      "name": "getIngredient",
      "outputs": [
        {
          "internalType": "string",
          "name": "name",
          "type": "string"
        },
        {
          "internalType": "address",
          "name": "supplierAddr",
          "type": "address"
        },
        {
          "internalType": "string",
          "name": "category",
          "type": "string"
        },
        {
          "internalType": "bool",
          "name": "available",
          "type": "bool"
        },
        {
          "internalType": "uint256",
          "name": "addedAt",
          "type": "uint256"
        }
      ],
      "stateMutability": "view",
      "type": "function"
    },
    {
      "inputs": [
        {
          "internalType": "uint256",
          "name": "pId",
          "type": "uint256"
        }
      ],
      "name": "getProduct",
      "outputs": [
        {
          "internalType": "string",
          "name": "name",
          "type": "string"
        },
        {
          "internalType": "string",
          "name": "batchId",
          "type": "string"
        },
        {
          "internalType": "uint256[]",
          "name": "ingredientIds",
          "type": "uint256[]"
        },
        {
          "internalType": "address[]",
          "name": "supplierAddresses",
          "type": "address[]"
        },
        {
          "internalType": "uint8",
          "name": "approved",
          "type": "uint8"
        },
        {
          "internalType": "uint8",
          "name": "total",
          "type": "uint8"
        },
        {
          "internalType": "uint8",
          "name": "status",
          "type": "uint8"
        },
        {
          "internalType": "uint256",
          "name": "createdAt",
          "type": "uint256"
        },
        {
          "internalType": "uint256",
          "name": "approvedAt",
          "type": "uint256"
        }
      ],
      "stateMutability": "view",
      "type": "function"
    },
    {
      "inputs": [
        {
          "internalType": "uint256",
          "name": "pId",
          "type": "uint256"
        }
      ],
      "name": "getProductTraceability",
      "outputs": [
        {
          "internalType": "string",
          "name": "productName",
          "type": "string"
        },
        {
          "internalType": "string",
          "name": "batchId",
          "type": "string"
        },
        {
          "internalType": "string[]",
          "name": "ingredientNames",
          "type": "string[]"
        },
        {
          "internalType": "string[]",
          "name": "ingredientCategories",
          "type": "string[]"
        },
        {
          "internalType": "address[]",
          "name": "supplierAddresses",
          "type": "address[]"
        },
        {
          "internalType": "uint256",
          "name": "createdAt",
          "type": "uint256"
        },
        {
          "internalType": "uint256",
          "name": "approvedAt",
          "type": "uint256"
        },
        {
          "internalType": "uint8",
          "name": "status",
          "type": "uint8"
        }
      ],
      "stateMutability": "view",
      "type": "function"
    },
    {
      "inputs": [
        {
          "internalType": "uint256",
          "name": "pId",
          "type": "uint256"
        }
      ],
      "name": "getProgress",
      "outputs": [
        {
          "internalType": "uint8",
          "name": "approved",
          "type": "uint8"
        },
        {
          "internalType": "uint8",
          "name": "total",
          "type": "uint8"
        },
        {
          "internalType": "uint8",
          "name": "status",
          "type": "uint8"
        },
        {
          "internalType": "uint256",
          "name": "progressPercentage",
          "type": "uint256"
        }
      ],
      "stateMutability": "view",
      "type": "function"
    },
    {
      "inputs": [
        {
          "internalType": "uint256",
          "name": "",
          "type": "uint256"
        }
      ],
      "name": "ingredients",
      "outputs": [
        {
          "internalType": "string",
          "name": "name",
          "type": "string"
        },
        {
          "internalType": "address",
          "name": "supplierAddr",
          "type": "address"
        },
        {
          "internalType": "string",
          "name": "category",
          "type": "string"
        },
        {
          "internalType": "bool",
          "name": "available",
          "type": "bool"
        },
        {
          "internalType": "uint256",
          "name": "addedAt",
          "type": "uint256"
        }
      ],
      "stateMutability": "view",
      "type": "function"
    },
    {
      "inputs": [],
      "name": "nextIId",
      "outputs": [
        {
          "internalType": "uint256",
          "name": "",
          "type": "uint256"
        }
      ],
      "stateMutability": "view",
      "type": "function"
    },
    {
      "inputs": [],
      "name": "nextPId",
      "outputs": [
        {
          "internalType": "uint256",
          "name": "",
          "type": "uint256"
        }
      ],
      "stateMutability": "view",
      "type": "function"
    },
    {
      "inputs": [
        {
          "internalType": "uint256",
          "name": "",
          "type": "uint256"
        }
      ],
      "name": "products",
      "outputs": [
        {
          "internalType": "string",
          "name": "name",
          "type": "string"
        },
        {
          "internalType": "string",
          "name": "batchId",
          "type": "string"
        },
        {
          "internalType": "uint8",
          "name": "approved",
          "type": "uint8"
        },
        {
          "internalType": "uint8",
          "name": "total",
          "type": "uint8"
        },
        {
          "internalType": "uint8",
          "name": "status",
          "type": "uint8"
        },
        {
          "internalType": "uint256",
          "name": "createdAt",
          "type": "uint256"
        },
        {
          "internalType": "uint256",
          "name": "approvedAt",
          "type": "uint256"
        }
      ],
      "stateMutability": "view",
      "type": "function"
    },
    {
      "inputs": [
        {
          "internalType": "uint256",
          "name": "pId",
          "type": "uint256"
        }
      ],
      "name": "rejectProduct",
      "outputs": [],
      "stateMutability": "nonpayable",
      "type": "function"
    }
  ],
  "bytecode": "0x6080604052600160005560018055348015601857600080fd5b50614747806100286000396000f3fe608060405234801561001057600080fd5b50600436106101165760003560e01c8063a5373899116100a2578063b9db15b411610071578063b9db15b414610320578063c5fd9c6f14610358578063e11efa061461038c578063edb7a146146103bf578063f814dca6146103ef57610116565b8063a537389914610295578063a5eadc51146102b4578063ab2850da146102d2578063b3db597a1461030257610116565b80632d165382116100e95780632d165382146101bc57806368c83b8b146101f057806377b04a2f1461020c5780637acc0b201461023e57806396a6a56f1461027457610116565b806302ee3a521461011b57806304f1c5fa14610139578063263c77fc1461017057806327d55495146101a0575b600080fd5b61012361040d565b6040516101309190613146565b60405180910390f35b610153600480360381019061014e91906131a8565b6104c1565b60405161016798979695949392919061348c565b60405180910390f35b61018a6004803603810190610185919061368e565b610b50565b6040516101979190613719565b60405180910390f35b6101ba60048036038101906101b591906131a8565b610db9565b005b6101d660048036038101906101d191906131a8565b61119d565b6040516101e795949392919061375e565b60405180910390f35b61020a600480360381019061020591906131a8565b611310565b005b610226600480360381019061022191906137bf565b6115b8565b604051610235939291906137ff565b60405180910390f35b610258600480360381019061025391906131a8565b61162c565b60405161026b9796959493929190613836565b60405180910390f35b61027c6117a5565b60405161028c94939291906138b3565b60405180910390f35b61029d611dd1565b6040516102ab929190613914565b60405180910390f35b6102bc611df9565b6040516102c99190613719565b60405180910390f35b6102ec60048036038101906102e7919061393d565b611dff565b6040516102f9919061397d565b60405180910390f35b61030a611e2e565b6040516103179190613146565b60405180910390f35b61033a600480360381019061033591906131a8565b611fa3565b60405161034f99989796959493929190613998565b60405180910390f35b610372600480360381019061036d91906131a8565b6122e7565b60405161038395949392919061375e565b60405180910390f35b6103a660048036038101906103a191906131a8565b61252e565b6040516103b69493929190613a41565b60405180910390f35b6103d960048036038101906103d49190613b4e565b61287a565b6040516103e69190613719565b60405180910390f35b6103f7612b44565b6040516104049190613719565b60405180910390f35b606060006001805461041f9190613c24565b905060008167ffffffffffffffff81111561043d5761043c613537565b5b60405190808252806020026020018201604052801561046b5781602001602082028036833780820191505090505b5090506000600190505b6001548110156104b857808260018361048e9190613c24565b8151811061049f5761049e613c58565b5b6020026020010181815250508080600101915050610475565b50809250505090565b60608060608060606000806000600154891080156104df5750600089115b61051e576040517f08c379a000000000000000000000000000000000000000000000000000000000815260040161051590613cd3565b60405180910390fd5b6002600360008b815260200190815260200160002060040160029054906101000a900460ff1660ff1614610587576040517f08c379a000000000000000000000000000000000000000000000000000000000815260040161057e90613d3f565b60405180910390fd5b6000600360008b8152602001908152602001600020604051806101200160405290816000820180546105b890613d8e565b80601f01602080910402602001604051908101604052809291908181526020018280546105e490613d8e565b80156106315780601f1061060657610100808354040283529160200191610631565b820191906000526020600020905b81548152906001019060200180831161061457829003601f168201915b5050505050815260200160018201805461064a90613d8e565b80601f016020809104026020016040519081016040528092919081815260200182805461067690613d8e565b80156106c35780601f10610698576101008083540402835291602001916106c3565b820191906000526020600020905b8154815290600101906020018083116106a657829003601f168201915b505050505081526020016002820180548060200260200160405190810160405280929190818152602001828054801561071b57602002820191906000526020600020905b815481526020019060010190808311610707575b50505050508152602001600382018054806020026020016040519081016040528092919081815260200182805480156107a957602002820191906000526020600020905b8160009054906101000a900473ffffffffffffffffffffffffffffffffffffffff1673ffffffffffffffffffffffffffffffffffffffff168152602001906001019080831161075f575b505050505081526020016004820160009054906101000a900460ff1660ff1660ff1681526020016004820160019054906101000a900460ff1660ff1660ff1681526020016004820160029054906101000a900460ff1660ff1660ff168152602001600582015481526020016006820154815250509050600081604001515167ffffffffffffffff8111156108405761083f613537565b5b60405190808252806020026020018201604052801561087357816020015b606081526020019060019003908161085e5790505b509050600082604001515167ffffffffffffffff81111561089757610896613537565b5b6040519080825280602002602001820160405280156108ca57816020015b60608152602001906001900390816108b55790505b50905060005b836040015151811015610b1057600060026000866040015184815181106108fa576108f9613c58565b5b602002602001015181526020019081526020016000206040518060a001604052908160008201805461092b90613d8e565b80601f016020809104026020016040519081016040528092919081815260200182805461095790613d8e565b80156109a45780601f10610979576101008083540402835291602001916109a4565b820191906000526020600020905b81548152906001019060200180831161098757829003601f168201915b505050505081526020016001820160009054906101000a900473ffffffffffffffffffffffffffffffffffffffff1673ffffffffffffffffffffffffffffffffffffffff1673ffffffffffffffffffffffffffffffffffffffff168152602001600282018054610a1390613d8e565b80601f0160208091040260200160405190810160405280929190818152602001828054610a3f90613d8e565b8015610a8c5780601f10610a6157610100808354040283529160200191610a8c565b820191906000526020600020905b815481529060010190602001808311610a6f57829003601f168201915b505050505081526020016003820160009054906101000a900460ff1615151515815260200160048201548152505090508060000151848381518110610ad457610ad3613c58565b5b60200260200101819052508060400151838381518110610af757610af6613c58565b5b60200260200101819052505080806001019150506108d0565b5082600001518360200151838386606001518760e001518861010001518960c001519a509a509a509a509a509a509a509a50505050919395975091939597565b600080845111610b95576040517f08c379a0000000000000000000000000000000000000000000000000000000008152600401610b8c90613e0b565b60405180910390fd5b600073ffffffffffffffffffffffffffffffffffffffff168373ffffffffffffffffffffffffffffffffffffffff1603610c04576040517f08c379a0000000000000000000000000000000000000000000000000000000008152600401610bfb90613e77565b60405180910390fd5b6000825111610c48576040517f08c379a0000000000000000000000000000000000000000000000000000000008152600401610c3f90613ee3565b60405180910390fd5b6000806000815480929190610c5c90613f03565b91905055905060004290506040518060a001604052808781526020018673ffffffffffffffffffffffffffffffffffffffff16815260200185815260200160011515815260200182815250600260008481526020019081526020016000206000820151816000019081610ccf91906140f7565b5060208201518160010160006101000a81548173ffffffffffffffffffffffffffffffffffffffff021916908373ffffffffffffffffffffffffffffffffffffffff1602179055506040820151816002019081610d2c91906140f7565b5060608201518160030160006101000a81548160ff021916908315150217905550608082015181600401559050508473ffffffffffffffffffffffffffffffffffffffff16827fa8a601e68974b05e1a495af3c4030e14a285086a2717fa92c48b9d0abe427e0e888785604051610da5939291906141c9565b60405180910390a381925050509392505050565b80610dc48133612b4a565b8015610e30575060006004600083815260200190815260200160002060003373ffffffffffffffffffffffffffffffffffffffff1673ffffffffffffffffffffffffffffffffffffffff16815260200190815260200160002060009054906101000a900460ff1660ff16145b610e6f576040517f08c379a0000000000000000000000000000000000000000000000000000000008152600401610e669061425a565b60405180910390fd5b600042905060016004600085815260200190815260200160002060003373ffffffffffffffffffffffffffffffffffffffff1673ffffffffffffffffffffffffffffffffffffffff16815260200190815260200160002060006101000a81548160ff021916908360ff16021790555060036000848152602001908152602001600020600401600081819054906101000a900460ff1680929190610f119061427a565b91906101000a81548160ff021916908360ff160217905550506005600084815260200190815260200160002060405180606001604052803373ffffffffffffffffffffffffffffffffffffffff168152602001600160ff16815260200183815250908060018154018082558091505060019003906000526020600020906002020160009091909190915060008201518160000160006101000a81548173ffffffffffffffffffffffffffffffffffffffff021916908373ffffffffffffffffffffffffffffffffffffffff16021790555060208201518160000160146101000a81548160ff021916908360ff1602179055506040820151816001015550506003600084815260200190815260200160002060040160019054906101000a900460ff1660ff166003600085815260200190815260200160002060040160009054906101000a900460ff1660ff16036111185760026003600085815260200190815260200160002060040160026101000a81548160ff021916908360ff160217905550806003600085815260200190815260200160002060060181905550827f0246c4c477b147627ef1114282dd6c0a0da86e5b62afe2b223709a0d9fa8150f60036000868152602001908152602001600020600001600360008781526020019081526020016000206001018460405161110b93929190614327565b60405180910390a2611149565b60016003600085815260200190815260200160002060040160026101000a81548160ff021916908360ff1602179055505b3373ffffffffffffffffffffffffffffffffffffffff16837f6e71133e2ae9d1c55c944361398075b7d4201e02223b9dcb04749d92f71e10c6836040516111909190613719565b60405180910390a3505050565b60026020528060005260406000206000915090508060000180546111c090613d8e565b80601f01602080910402602001604051908101604052809291908181526020018280546111ec90613d8e565b80156112395780601f1061120e57610100808354040283529160200191611239565b820191906000526020600020905b81548152906001019060200180831161121c57829003601f168201915b5050505050908060010160009054906101000a900473ffffffffffffffffffffffffffffffffffffffff169080600201805461127490613d8e565b80601f01602080910402602001604051908101604052809291908181526020018280546112a090613d8e565b80156112ed5780601f106112c2576101008083540402835291602001916112ed565b820191906000526020600020905b8154815290600101906020018083116112d057829003601f168201915b5050505050908060030160009054906101000a900460ff16908060040154905085565b8061131b8133612b4a565b8015611387575060006004600083815260200190815260200160002060003373ffffffffffffffffffffffffffffffffffffffff1673ffffffffffffffffffffffffffffffffffffffff16815260200190815260200160002060009054906101000a900460ff1660ff16145b6113c6576040517f08c379a00000000000000000000000000000000000000000000000000000000081526004016113bd9061425a565b60405180910390fd5b600042905060026004600085815260200190815260200160002060003373ffffffffffffffffffffffffffffffffffffffff1673ffffffffffffffffffffffffffffffffffffffff16815260200190815260200160002060006101000a81548160ff021916908360ff160217905550600380600085815260200190815260200160002060040160026101000a81548160ff021916908360ff1602179055508060036000858152602001908152602001600020600601819055506005600084815260200190815260200160002060405180606001604052803373ffffffffffffffffffffffffffffffffffffffff168152602001600260ff16815260200183815250908060018154018082558091505060019003906000526020600020906002020160009091909190915060008201518160000160006101000a81548173ffffffffffffffffffffffffffffffffffffffff021916908373ffffffffffffffffffffffffffffffffffffffff16021790555060208201518160000160146101000a81548160ff021916908360ff1602179055506040820151816001015550503373ffffffffffffffffffffffffffffffffffffffff16837fffcaf282f05bf886c68102edc9e2d1c6adc7feb4e37db59f876f5dffb58e9efd836040516115ab9190613719565b60405180910390a3505050565b600560205281600052604060002081815481106115d457600080fd5b9060005260206000209060020201600091509150508060000160009054906101000a900473ffffffffffffffffffffffffffffffffffffffff16908060000160149054906101000a900460ff16908060010154905083565b600360205280600052604060002060009150905080600001805461164f90613d8e565b80601f016020809104026020016040519081016040528092919081815260200182805461167b90613d8e565b80156116c85780601f1061169d576101008083540402835291602001916116c8565b820191906000526020600020905b8154815290600101906020018083116116ab57829003601f168201915b5050505050908060010180546116dd90613d8e565b80601f016020809104026020016040519081016040528092919081815260200182805461170990613d8e565b80156117565780601f1061172b57610100808354040283529160200191611756565b820191906000526020600020905b81548152906001019060200180831161173957829003601f168201915b5050505050908060040160009054906101000a900460ff16908060040160019054906101000a900460ff16908060040160029054906101000a900460ff16908060050154908060060154905087565b6060806060806000805467ffffffffffffffff8111156117c8576117c7613537565b5b6040519080825280602002602001820160405280156117f65781602001602082028036833780820191505090505b5090506000805467ffffffffffffffff81111561181657611815613537565b5b60405190808252806020026020018201604052801561184957816020015b60608152602001906001900390816118345790505b5090506000805467ffffffffffffffff81111561186957611868613537565b5b60405190808252806020026020018201604052801561189c57816020015b60608152602001906001900390816118875790505b5090506000805467ffffffffffffffff8111156118bc576118bb613537565b5b6040519080825280602002602001820160405280156118ea5781602001602082028036833780820191505090505b509050600080600190505b600054811015611b62576002600082815260200190815260200160002060030160009054906101000a900460ff1615611b55578086838151811061193c5761193b613c58565b5b60200260200101818152505060026000828152602001908152602001600020600001805461196990613d8e565b80601f016020809104026020016040519081016040528092919081815260200182805461199590613d8e565b80156119e25780601f106119b7576101008083540402835291602001916119e2565b820191906000526020600020905b8154815290600101906020018083116119c557829003601f168201915b50505050508583815181106119fa576119f9613c58565b5b6020026020010181905250600260008281526020019081526020016000206002018054611a2690613d8e565b80601f0160208091040260200160405190810160405280929190818152602001828054611a5290613d8e565b8015611a9f5780601f10611a7457610100808354040283529160200191611a9f565b820191906000526020600020905b815481529060010190602001808311611a8257829003601f168201915b5050505050848381518110611ab757611ab6613c58565b5b60200260200101819052506002600082815260200190815260200160002060010160009054906101000a900473ffffffffffffffffffffffffffffffffffffffff16838381518110611b0c57611b0b613c58565b5b602002602001019073ffffffffffffffffffffffffffffffffffffffff16908173ffffffffffffffffffffffffffffffffffffffff16815250508180611b5190613f03565b9250505b80806001019150506118f5565b508067ffffffffffffffff811115611b7d57611b7c613537565b5b604051908082528060200260200182016040528015611bab5781602001602082028036833780820191505090505b5098508067ffffffffffffffff811115611bc857611bc7613537565b5b604051908082528060200260200182016040528015611bfb57816020015b6060815260200190600190039081611be65790505b5097508067ffffffffffffffff811115611c1857611c17613537565b5b604051908082528060200260200182016040528015611c4b57816020015b6060815260200190600190039081611c365790505b5096508067ffffffffffffffff811115611c6857611c67613537565b5b604051908082528060200260200182016040528015611c965781602001602082028036833780820191505090505b50955060005b81811015611dc557858181518110611cb757611cb6613c58565b5b60200260200101518a8281518110611cd257611cd1613c58565b5b602002602001018181525050848181518110611cf157611cf0613c58565b5b6020026020010151898281518110611d0c57611d0b613c58565b5b6020026020010181905250838181518110611d2a57611d29613c58565b5b6020026020010151888281518110611d4557611d44613c58565b5b6020026020010181905250828181518110611d6357611d62613c58565b5b6020026020010151878281518110611d7e57611d7d613c58565b5b602002602001019073ffffffffffffffffffffffffffffffffffffffff16908173ffffffffffffffffffffffffffffffffffffffff16815250508080600101915050611c9c565b50505050505090919293565b6000806001600054611de39190613c24565b60018054611df19190613c24565b915091509091565b60005481565b60046020528160005260406000206020528060005260406000206000915091509054906101000a900460ff1681565b6060600060015467ffffffffffffffff811115611e4e57611e4d613537565b5b604051908082528060200260200182016040528015611e7c5781602001602082028036833780820191505090505b509050600080600190505b600154811015611ef95760026003600083815260200190815260200160002060040160029054906101000a900460ff1660ff1603611eec5780838380611ecc90613f03565b945081518110611edf57611ede613c58565b5b6020026020010181815250505b8080600101915050611e87565b5060008167ffffffffffffffff811115611f1657611f15613537565b5b604051908082528060200260200182016040528015611f445781602001602082028036833780820191505090505b50905060005b82811015611f9957838181518110611f6557611f64613c58565b5b6020026020010151828281518110611f8057611f7f613c58565b5b6020026020010181815250508080600101915050611f4a565b5080935050505090565b60608060608060008060008060006001548a108015611fc2575060008a115b612001576040517f08c379a0000000000000000000000000000000000000000000000000000000008152600401611ff890613cd3565b60405180910390fd5b6000600360008c81526020019081526020016000206040518061012001604052908160008201805461203290613d8e565b80601f016020809104026020016040519081016040528092919081815260200182805461205e90613d8e565b80156120ab5780601f10612080576101008083540402835291602001916120ab565b820191906000526020600020905b81548152906001019060200180831161208e57829003601f168201915b505050505081526020016001820180546120c490613d8e565b80601f01602080910402602001604051908101604052809291908181526020018280546120f090613d8e565b801561213d5780601f106121125761010080835404028352916020019161213d565b820191906000526020600020905b81548152906001019060200180831161212057829003601f168201915b505050505081526020016002820180548060200260200160405190810160405280929190818152602001828054801561219557602002820191906000526020600020905b815481526020019060010190808311612181575b505050505081526020016003820180548060200260200160405190810160405280929190818152602001828054801561222357602002820191906000526020600020905b8160009054906101000a900473ffffffffffffffffffffffffffffffffffffffff1673ffffffffffffffffffffffffffffffffffffffff16815260200190600101908083116121d9575b505050505081526020016004820160009054906101000a900460ff1660ff1660ff1681526020016004820160019054906101000a900460ff1660ff1660ff1681526020016004820160029054906101000a900460ff1660ff1660ff168152602001600582015481526020016006820154815250509050806000015181602001518260400151836060015184608001518560a001518660c001518760e00151886101000151995099509950995099509950995099509950509193959799909294969850565b606060006060600080600054861080156123015750600086115b612340576040517f08c379a0000000000000000000000000000000000000000000000000000000008152600401612337906143b8565b60405180910390fd5b6000600260008881526020019081526020016000206040518060a001604052908160008201805461237090613d8e565b80601f016020809104026020016040519081016040528092919081815260200182805461239c90613d8e565b80156123e95780601f106123be576101008083540402835291602001916123e9565b820191906000526020600020905b8154815290600101906020018083116123cc57829003601f168201915b505050505081526020016001820160009054906101000a900473ffffffffffffffffffffffffffffffffffffffff1673ffffffffffffffffffffffffffffffffffffffff1673ffffffffffffffffffffffffffffffffffffffff16815260200160028201805461245890613d8e565b80601f016020809104026020016040519081016040528092919081815260200182805461248490613d8e565b80156124d15780601f106124a6576101008083540402835291602001916124d1565b820191906000526020600020905b8154815290600101906020018083116124b457829003601f168201915b505050505081526020016003820160009054906101000a900460ff16151515158152602001600482015481525050905080600001518160200151826040015183606001518460800151955095509550955095505091939590929450565b600080600080600154851080156125455750600085115b612584576040517f08c379a000000000000000000000000000000000000000000000000000000000815260040161257b90613cd3565b60405180910390fd5b600060036000878152602001908152602001600020604051806101200160405290816000820180546125b590613d8e565b80601f01602080910402602001604051908101604052809291908181526020018280546125e190613d8e565b801561262e5780601f106126035761010080835404028352916020019161262e565b820191906000526020600020905b81548152906001019060200180831161261157829003601f168201915b5050505050815260200160018201805461264790613d8e565b80601f016020809104026020016040519081016040528092919081815260200182805461267390613d8e565b80156126c05780601f10612695576101008083540402835291602001916126c0565b820191906000526020600020905b8154815290600101906020018083116126a357829003601f168201915b505050505081526020016002820180548060200260200160405190810160405280929190818152602001828054801561271857602002820191906000526020600020905b815481526020019060010190808311612704575b50505050508152602001600382018054806020026020016040519081016040528092919081815260200182805480156127a657602002820191906000526020600020905b8160009054906101000a900473ffffffffffffffffffffffffffffffffffffffff1673ffffffffffffffffffffffffffffffffffffffff168152602001906001019080831161275c575b505050505081526020016004820160009054906101000a900460ff1660ff1660ff1681526020016004820160019054906101000a900460ff1660ff1660ff1681526020016004820160029054906101000a900460ff1660ff1660ff1681526020016005820154815260200160068201548152505090506000808260a0015160ff1611612833576000612854565b8160a001516064836080015161284991906143d8565b6128539190614444565b5b60ff16905081608001518260a001518360c0015183955095509550955050509193509193565b6000808451116128bf576040517f08c379a00000000000000000000000000000000000000000000000000000000081526004016128b6906144c1565b60405180910390fd5b6000835111612903576040517f08c379a00000000000000000000000000000000000000000000000000000000081526004016128fa9061452d565b60405180910390fd5b6000825111612947576040517f08c379a000000000000000000000000000000000000000000000000000000000815260040161293e90614599565b60405180910390fd5b600061295283612c7b565b90506000815111612998576040517f08c379a000000000000000000000000000000000000000000000000000000000815260040161298f90614605565b60405180910390fd5b6000600160008154809291906129ad90613f03565b9190505590506000429050604051806101200160405280888152602001878152602001868152602001848152602001600060ff168152602001845160ff168152602001600060ff1681526020018281526020016000815250600360008481526020019081526020016000206000820151816000019081612a2d91906140f7565b506020820151816001019081612a4391906140f7565b506040820151816002019080519060200190612a60929190612f8a565b506060820151816003019080519060200190612a7d929190612fd7565b5060808201518160040160006101000a81548160ff021916908360ff16021790555060a08201518160040160016101000a81548160ff021916908360ff16021790555060c08201518160040160026101000a81548160ff021916908360ff16021790555060e082015181600501556101008201518160060155905050817ff4b788a96abee924a31476b628ad752dfc0fa4b5b30419edaaa43bb04d0e2f5688888685604051612b2f9493929190614625565b60405180910390a28193505050509392505050565b60015481565b60006001548310612b5e5760009050612c75565b600060036000858152602001908152602001600020600301805480602002602001604051908101604052809291908181526020018280548015612bf657602002820191906000526020600020905b8160009054906101000a900473ffffffffffffffffffffffffffffffffffffffff1673ffffffffffffffffffffffffffffffffffffffff1681526020019060010190808311612bac575b5050505050905060005b8151811015612c6e578373ffffffffffffffffffffffffffffffffffffffff16828281518110612c3357612c32613c58565b5b602002602001015173ffffffffffffffffffffffffffffffffffffffff1603612c6157600192505050612c75565b8080600101915050612c00565b5060009150505b92915050565b60606000825167ffffffffffffffff811115612c9a57612c99613537565b5b604051908082528060200260200182016040528015612cc85781602001602082028036833780820191505090505b5090506000805b8451811015612eb057600054858281518110612cee57612ced613c58565b5b6020026020010151108015612d3d575060026000868381518110612d1557612d14613c58565b5b6020026020010151815260200190815260200160002060030160009054906101000a900460ff165b612d7c576040517f08c379a0000000000000000000000000000000000000000000000000000000008152600401612d73906146f1565b60405180910390fd5b600060026000878481518110612d9557612d94613c58565b5b6020026020010151815260200190815260200160002060010160009054906101000a900473ffffffffffffffffffffffffffffffffffffffff1690506000805b84811015612e40578273ffffffffffffffffffffffffffffffffffffffff16868281518110612e0757612e06613c58565b5b602002602001015173ffffffffffffffffffffffffffffffffffffffff1603612e335760019150612e40565b8080600101915050612dd5565b5080612ea15781858580612e5390613f03565b965081518110612e6657612e65613c58565b5b602002602001019073ffffffffffffffffffffffffffffffffffffffff16908173ffffffffffffffffffffffffffffffffffffffff16815250505b50508080600101915050612ccf565b5060008167ffffffffffffffff811115612ecd57612ecc613537565b5b604051908082528060200260200182016040528015612efb5781602001602082028036833780820191505090505b50905060005b82811015612f7e57838181518110612f1c57612f1b613c58565b5b6020026020010151828281518110612f3757612f36613c58565b5b602002602001019073ffffffffffffffffffffffffffffffffffffffff16908173ffffffffffffffffffffffffffffffffffffffff16815250508080600101915050612f01565b50809350505050919050565b828054828255906000526020600020908101928215612fc6579160200282015b82811115612fc5578251825591602001919060010190612faa565b5b509050612fd39190613061565b5090565b828054828255906000526020600020908101928215613050579160200282015b8281111561304f5782518260006101000a81548173ffffffffffffffffffffffffffffffffffffffff021916908373ffffffffffffffffffffffffffffffffffffffff16021790555091602001919060010190612ff7565b5b50905061305d9190613061565b5090565b5b8082111561307a576000816000905550600101613062565b5090565b600081519050919050565b600082825260208201905092915050565b6000819050602082019050919050565b6000819050919050565b6130bd816130aa565b82525050565b60006130cf83836130b4565b60208301905092915050565b6000602082019050919050565b60006130f38261307e565b6130fd8185613089565b93506131088361309a565b8060005b8381101561313957815161312088826130c3565b975061312b836130db565b92505060018101905061310c565b5085935050505092915050565b6000602082019050818103600083015261316081846130e8565b905092915050565b6000604051905090565b600080fd5b600080fd5b613185816130aa565b811461319057600080fd5b50565b6000813590506131a28161317c565b92915050565b6000602082840312156131be576131bd613172565b5b60006131cc84828501613193565b91505092915050565b600081519050919050565b600082825260208201905092915050565b60005b8381101561320f5780820151818401526020810190506131f4565b60008484015250505050565b6000601f19601f8301169050919050565b6000613237826131d5565b61324181856131e0565b93506132518185602086016131f1565b61325a8161321b565b840191505092915050565b600081519050919050565b600082825260208201905092915050565b6000819050602082019050919050565b600082825260208201905092915050565b60006132ad826131d5565b6132b78185613291565b93506132c78185602086016131f1565b6132d08161321b565b840191505092915050565b60006132e783836132a2565b905092915050565b6000602082019050919050565b600061330782613265565b6133118185613270565b93508360208202850161332385613281565b8060005b8581101561335f578484038952815161334085826132db565b945061334b836132ef565b925060208a01995050600181019050613327565b50829750879550505050505092915050565b600081519050919050565b600082825260208201905092915050565b6000819050602082019050919050565b600073ffffffffffffffffffffffffffffffffffffffff82169050919050565b60006133c88261339d565b9050919050565b6133d8816133bd565b82525050565b60006133ea83836133cf565b60208301905092915050565b6000602082019050919050565b600061340e82613371565b613418818561337c565b93506134238361338d565b8060005b8381101561345457815161343b88826133de565b9750613446836133f6565b925050600181019050613427565b5085935050505092915050565b61346a816130aa565b82525050565b600060ff82169050919050565b61348681613470565b82525050565b60006101008201905081810360008301526134a7818b61322c565b905081810360208301526134bb818a61322c565b905081810360408301526134cf81896132fc565b905081810360608301526134e381886132fc565b905081810360808301526134f78187613403565b905061350660a0830186613461565b61351360c0830185613461565b61352060e083018461347d565b9998505050505050505050565b600080fd5b600080fd5b7f4e487b7100000000000000000000000000000000000000000000000000000000600052604160045260246000fd5b61356f8261321b565b810181811067ffffffffffffffff8211171561358e5761358d613537565b5b80604052505050565b60006135a1613168565b90506135ad8282613566565b919050565b600067ffffffffffffffff8211156135cd576135cc613537565b5b6135d68261321b565b9050602081019050919050565b82818337600083830152505050565b6000613605613600846135b2565b613597565b90508281526020810184848401111561362157613620613532565b5b61362c8482856135e3565b509392505050565b600082601f8301126136495761364861352d565b5b81356136598482602086016135f2565b91505092915050565b61366b816133bd565b811461367657600080fd5b50565b60008135905061368881613662565b92915050565b6000806000606084860312156136a7576136a6613172565b5b600084013567ffffffffffffffff8111156136c5576136c4613177565b5b6136d186828701613634565b93505060206136e286828701613679565b925050604084013567ffffffffffffffff81111561370357613702613177565b5b61370f86828701613634565b9150509250925092565b600060208201905061372e6000830184613461565b92915050565b61373d816133bd565b82525050565b60008115159050919050565b61375881613743565b82525050565b600060a0820190508181036000830152613778818861322c565b90506137876020830187613734565b8181036040830152613799818661322c565b90506137a8606083018561374f565b6137b56080830184613461565b9695505050505050565b600080604083850312156137d6576137d5613172565b5b60006137e485828601613193565b92505060206137f585828601613193565b9150509250929050565b60006060820190506138146000830186613734565b613821602083018561347d565b61382e6040830184613461565b949350505050565b600060e0820190508181036000830152613850818a61322c565b90508181036020830152613864818961322c565b9050613873604083018861347d565b613880606083018761347d565b61388d608083018661347d565b61389a60a0830185613461565b6138a760c0830184613461565b98975050505050505050565b600060808201905081810360008301526138cd81876130e8565b905081810360208301526138e181866132fc565b905081810360408301526138f581856132fc565b905081810360608301526139098184613403565b905095945050505050565b60006040820190506139296000830185613461565b6139366020830184613461565b9392505050565b6000806040838503121561395457613953613172565b5b600061396285828601613193565b925050602061397385828601613679565b9150509250929050565b6000602082019050613992600083018461347d565b92915050565b60006101208201905081810360008301526139b3818c61322c565b905081810360208301526139c7818b61322c565b905081810360408301526139db818a6130e8565b905081810360608301526139ef8189613403565b90506139fe608083018861347d565b613a0b60a083018761347d565b613a1860c083018661347d565b613a2560e0830185613461565b613a33610100830184613461565b9a9950505050505050505050565b6000608082019050613a56600083018761347d565b613a63602083018661347d565b613a70604083018561347d565b613a7d6060830184613461565b95945050505050565b600067ffffffffffffffff821115613aa157613aa0613537565b5b602082029050602081019050919050565b600080fd5b6000613aca613ac584613a86565b613597565b90508083825260208201905060208402830185811115613aed57613aec613ab2565b5b835b81811015613b165780613b028882613193565b845260208401935050602081019050613aef565b5050509392505050565b600082601f830112613b3557613b3461352d565b5b8135613b45848260208601613ab7565b91505092915050565b600080600060608486031215613b6757613b66613172565b5b600084013567ffffffffffffffff811115613b8557613b84613177565b5b613b9186828701613634565b935050602084013567ffffffffffffffff811115613bb257613bb1613177565b5b613bbe86828701613634565b925050604084013567ffffffffffffffff811115613bdf57613bde613177565b5b613beb86828701613b20565b9150509250925092565b7f4e487b7100000000000000000000000000000000000000000000000000000000600052601160045260246000fd5b6000613c2f826130aa565b9150613c3a836130aa565b9250828203905081811115613c5257613c51613bf5565b5b92915050565b7f4e487b7100000000000000000000000000000000000000000000000000000000600052603260045260246000fd5b7f496e76616c69642070726f647563742049440000000000000000000000000000600082015250565b6000613cbd6012836131e0565b9150613cc882613c87565b602082019050919050565b60006020820190508181036000830152613cec81613cb0565b9050919050565b7f50726f64756374206e6f742066756c6c7920617070726f766564207965740000600082015250565b6000613d29601e836131e0565b9150613d3482613cf3565b602082019050919050565b60006020820190508181036000830152613d5881613d1c565b9050919050565b7f4e487b7100000000000000000000000000000000000000000000000000000000600052602260045260246000fd5b60006002820490506001821680613da657607f821691505b602082108103613db957613db8613d5f565b5b50919050565b7f4e616d6520726571756972656400000000000000000000000000000000000000600082015250565b6000613df5600d836131e0565b9150613e0082613dbf565b602082019050919050565b60006020820190508181036000830152613e2481613de8565b9050919050565b7f496e76616c696420737570706c69657220616464726573730000000000000000600082015250565b6000613e616018836131e0565b9150613e6c82613e2b565b602082019050919050565b60006020820190508181036000830152613e9081613e54565b9050919050565b7f43617465676f7279207265717569726564000000000000000000000000000000600082015250565b6000613ecd6011836131e0565b9150613ed882613e97565b602082019050919050565b60006020820190508181036000830152613efc81613ec0565b9050919050565b6000613f0e826130aa565b91507fffffffffffffffffffffffffffffffffffffffffffffffffffffffffffffffff8203613f4057613f3f613bf5565b5b600182019050919050565b60008190508160005260206000209050919050565b60006020601f8301049050919050565b600082821b905092915050565b600060088302613fad7fffffffffffffffffffffffffffffffffffffffffffffffffffffffffffffffff82613f70565b613fb78683613f70565b95508019841693508086168417925050509392505050565b6000819050919050565b6000613ff4613fef613fea846130aa565b613fcf565b6130aa565b9050919050565b6000819050919050565b61400e83613fd9565b61402261401a82613ffb565b848454613f7d565b825550505050565b600090565b61403761402a565b614042818484614005565b505050565b5b818110156140665761405b60008261402f565b600181019050614048565b5050565b601f8211156140ab5761407c81613f4b565b61408584613f60565b81016020851015614094578190505b6140a86140a085613f60565b830182614047565b50505b505050565b600082821c905092915050565b60006140ce600019846008026140b0565b1980831691505092915050565b60006140e783836140bd565b9150826002028217905092915050565b614100826131d5565b67ffffffffffffffff81111561411957614118613537565b5b6141238254613d8e565b61412e82828561406a565b600060209050601f831160018114614161576000841561414f578287015190505b61415985826140db565b8655506141c1565b601f19841661416f86613f4b565b60005b8281101561419757848901518255600182019150602085019450602081019050614172565b868310156141b457848901516141b0601f8916826140bd565b8355505b6001600288020188555050505b505050505050565b600060608201905081810360008301526141e3818661322c565b905081810360208301526141f7818561322c565b90506142066040830184613461565b949350505050565b7f4e6f7420617574686f72697a656420737570706c696572000000000000000000600082015250565b60006142446017836131e0565b915061424f8261420e565b602082019050919050565b6000602082019050818103600083015261427381614237565b9050919050565b600061428582613470565b915060ff820361429857614297613bf5565b5b600182019050919050565b600081546142b081613d8e565b6142ba81866131e0565b945060018216600081146142d557600181146142eb5761431e565b60ff19831686528115156020028601935061431e565b6142f485613f4b565b60005b83811015614316578154818901526001820191506020810190506142f7565b808801955050505b50505092915050565b6000606082019050818103600083015261434181866142a3565b9050818103602083015261435581856142a3565b90506143646040830184613461565b949350505050565b7f496e76616c696420696e6772656469656e742049440000000000000000000000600082015250565b60006143a26015836131e0565b91506143ad8261436c565b602082019050919050565b600060208201905081810360008301526143d181614395565b9050919050565b60006143e382613470565b91506143ee83613470565b92508282026143fc81613470565b915080821461440e5761440d613bf5565b5b5092915050565b7f4e487b7100000000000000000000000000000000000000000000000000000000600052601260045260246000fd5b600061444f82613470565b915061445a83613470565b92508261446a57614469614415565b5b828204905092915050565b7f50726f64756374206e616d652072657175697265640000000000000000000000600082015250565b60006144ab6015836131e0565b91506144b682614475565b602082019050919050565b600060208201905081810360008301526144da8161449e565b9050919050565b7f4261746368204944207265717569726564000000000000000000000000000000600082015250565b60006145176011836131e0565b9150614522826144e1565b602082019050919050565b600060208201905081810360008301526145468161450a565b9050919050565b7f4e656564206174206c65617374206f6e6520696e6772656469656e7400000000600082015250565b6000614583601c836131e0565b915061458e8261454d565b602082019050919050565b600060208201905081810360008301526145b281614576565b9050919050565b7f4e6f2076616c696420737570706c6965727320666f756e640000000000000000600082015250565b60006145ef6018836131e0565b91506145fa826145b9565b602082019050919050565b6000602082019050818103600083015261461e816145e2565b9050919050565b6000608082019050818103600083015261463f818761322c565b90508181036020830152614653818661322c565b905081810360408301526146678185613403565b90506146766060830184613461565b95945050505050565b7f496e76616c6964206f7220756e617661696c61626c6520696e6772656469656e60008201527f7400000000000000000000000000000000000000000000000000000000000000602082015250565b60006146db6021836131e0565b91506146e68261467f565b604082019050919050565b6000602082019050818103600083015261470a816146ce565b905091905056fea26469706673582212208389292ceb1c0c5d170835985fc3788e366f1fb9b7f59ff4165164ce9b312d4864736f6c634300081c0033",
  "linkReferences": {},
  "deployedLinkReferences": {}
}