{
  "_format": "hh-sol-artifact-1",
  "contractName": "UserManagement",
  "sourceName": "contracts/UserHandling.sol",
  "abi": [
    {
      "inputs": [],
      "stateMutability": "nonpayable",
      "type": "constructor"
    },
    {
      "anonymous": false,
      "inputs": [
        {
          "indexed": true,
          "internalType": "address",
          "name": "userAddress",
          "type": "address"
        },
        {
          "indexed": true,
          "internalType": "enum UserManagement.Role",
          "name": "role",
          "type": "uint8"
        },
        {
          "indexed": true,
          "internalType": "address",
          "name": "createdBy",
          "type": "address"
        },
        {
          "indexed": false,
          "internalType": "uint256",
          "name": "timestamp",
          "type": "uint256"
        }
      ],
      "name": "UserCreated",
      "type": "event"
    },
    {
      "inputs": [
        {
          "internalType": "address",
          "name": "userAddress",
          "type": "address"
        },
        {
          "internalType": "enum UserManagement.Role",
          "name": "role",
          "type": "uint8"
        },
        {
          "internalType": "string",
          "name": "displayName",
          "type": "string"
        }
      ],
      "name": "createUser",
      "outputs": [
        {
          "internalType": "bool",
          "name": "",
          "type": "bool"
        }
      ],
      "stateMutability": "nonpayable",
      "type": "function"
    },
    {
      "inputs": [],
      "name": "getAllUsers",
      "outputs": [
        {
          "internalType": "address[]",
          "name": "userAddresses",
          "type": "address[]"
        }
      ],
      "stateMutability": "view",
      "type": "function"
    },
    {
      "inputs": [],
      "name": "getTotalUsers",
      "outputs": [
        {
          "internalType": "uint256",
          "name": "count",
          "type": "uint256"
        }
      ],
      "stateMutability": "view",
      "type": "function"
    },
    {
      "inputs": [
        {
          "internalType": "address",
          "name": "userAddress",
          "type": "address"
        }
      ],
      "name": "getUserDetails",
      "outputs": [
        {
          "components": [
            {
              "internalType": "address",
              "name": "walletAddress",
              "type": "address"
            },
            {
              "internalType": "enum UserManagement.Role",
              "name": "role",
              "type": "uint8"
            },
            {
              "internalType": "uint256",
              "name": "registeredAt",
              "type": "uint256"
            },
            {
              "internalType": "address",
              "name": "registeredBy",
              "type": "address"
            },
            {
              "internalType": "string",
              "name": "displayName",
              "type": "string"
            }
          ],
          "internalType": "struct UserManagement.User",
          "name": "user",
          "type": "tuple"
        }
      ],
      "stateMutability": "view",
      "type": "function"
    },
    {
      "inputs": [
        {
          "internalType": "address",
          "name": "userAddress",
          "type": "address"
        }
      ],
      "name": "getUserRole",
      "outputs": [
        {
          "internalType": "enum UserManagement.Role",
          "name": "role",
          "type": "uint8"
        },
        {
          "internalType": "string",
          "name": "displayName",
          "type": "string"
        },
        {
          "internalType": "uint256",
          "name": "registeredAt",
          "type": "uint256"
        }
      ],
      "stateMutability": "view",
      "type": "function"
    },
    {
      "inputs": [],
      "name": "getUserStats",
      "outputs": [
        {
          "internalType": "uint256",
          "name": "managers",
          "type": "uint256"
        },
        {
          "internalType": "uint256",
          "name": "sellers",
          "type": "uint256"
        },
        {
          "internalType": "uint256",
          "name": "suppliers",
          "type": "uint256"
        }
      ],
      "stateMutability": "view",
      "type": "function"
    },
    {
      "inputs": [
        {
          "internalType": "enum UserManagement.Role",
          "name": "targetRole",
          "type": "uint8"
        }
      ],
      "name": "getUsersByRole",
      "outputs": [
        {
          "internalType": "address[]",
          "name": "userAddresses",
          "type": "address[]"
        },
        {
          "internalType": "string[]",
          "name": "userNames",
          "type": "string[]"
        }
      ],
      "stateMutability": "view",
      "type": "function"
    },
    {
      "inputs": [
        {
          "internalType": "address",
          "name": "",
          "type": "address"
        }
      ],
      "name": "isRegistered",
      "outputs": [
        {
          "internalType": "bool",
          "name": "",
          "type": "bool"
        }
      ],
      "stateMutability": "view",
      "type": "function"
    },
    {
      "inputs": [],
      "name": "owner",
      "outputs": [
        {
          "internalType": "address",
          "name": "",
          "type": "address"
        }
      ],
      "stateMutability": "view",
      "type": "function"
    },
    {
      "inputs": [
        {
          "internalType": "uint256",
          "name": "",
          "type": "uint256"
        }
      ],
      "name": "registeredUsers",
      "outputs": [
        {
          "internalType": "address",
          "name": "",
          "type": "address"
        }
      ],
      "stateMutability": "view",
      "type": "function"
    },
    {
      "inputs": [
        {
          "internalType": "address",
          "name": "userAddress",
          "type": "address"
        },
        {
          "internalType": "enum UserManagement.Role",
          "name": "requiredRole",
          "type": "uint8"
        }
      ],
      "name": "result",
      "outputs": [
        {
          "internalType": "bool",
          "name": "hasRole",
          "type": "bool"
        }
      ],
      "stateMutability": "view",
      "type": "function"
    },
    {
      "inputs": [
        {
          "internalType": "address",
          "name": "",
          "type": "address"
        }
      ],
      "name": "users",
      "outputs": [
        {
          "internalType": "address",
          "name": "walletAddress",
          "type": "address"
        },
        {
          "internalType": "enum UserManagement.Role",
          "name": "role",
          "type": "uint8"
        },
        {
          "internalType": "uint256",
          "name": "registeredAt",
          "type": "uint256"
        },
        {
          "internalType": "address",
          "name": "registeredBy",
          "type": "address"
        },
        {
          "internalType": "string",
          "name": "displayName",
          "type": "string"
        }
      ],
      "stateMutability": "view",
      "type": "function"
    }
  ],
  "bytecode": "0x608060405234801561001057600080fd5b50336000806101000a81548173ffffffffffffffffffffffffffffffffffffffff021916908373ffffffffffffffffffffffffffffffffffffffff1602179055506040518060a0016040528060008054906101000a900473ffffffffffffffffffffffffffffffffffffffff1673ffffffffffffffffffffffffffffffffffffffff168152602001600160038111156100ac576100ab610427565b5b815260200142815260200160008054906101000a900473ffffffffffffffffffffffffffffffffffffffff1673ffffffffffffffffffffffffffffffffffffffff1681526020016040518060400160405280600c81526020017f53797374656d204f776e65720000000000000000000000000000000000000000815250815250600160008060009054906101000a900473ffffffffffffffffffffffffffffffffffffffff1673ffffffffffffffffffffffffffffffffffffffff1673ffffffffffffffffffffffffffffffffffffffff16815260200190815260200160002060008201518160000160006101000a81548173ffffffffffffffffffffffffffffffffffffffff021916908373ffffffffffffffffffffffffffffffffffffffff16021790555060208201518160000160146101000a81548160ff021916908360038111156101fe576101fd610427565b5b02179055506040820151816001015560608201518160020160006101000a81548173ffffffffffffffffffffffffffffffffffffffff021916908373ffffffffffffffffffffffffffffffffffffffff160217905550608082015181600301908161026991906106a6565b509050506001600260008060009054906101000a900473ffffffffffffffffffffffffffffffffffffffff1673ffffffffffffffffffffffffffffffffffffffff1673ffffffffffffffffffffffffffffffffffffffff16815260200190815260200160002060006101000a81548160ff021916908315150217905550600360008054906101000a900473ffffffffffffffffffffffffffffffffffffffff169080600181540180825580915050600190039060005260206000200160009091909190916101000a81548173ffffffffffffffffffffffffffffffffffffffff021916908373ffffffffffffffffffffffffffffffffffffffff16021790555060008054906101000a900473ffffffffffffffffffffffffffffffffffffffff1673ffffffffffffffffffffffffffffffffffffffff16600160038111156103b4576103b3610427565b5b60008054906101000a900473ffffffffffffffffffffffffffffffffffffffff1673ffffffffffffffffffffffffffffffffffffffff167f44a129b50e111af05e3e70c5f152e3393ce704187deb9054ebcc56039e9d45604260405161041a9190610787565b60405180910390a46107a2565b7f4e487b7100000000000000000000000000000000000000000000000000000000600052602160045260246000fd5b600081519050919050565b7f4e487b7100000000000000000000000000000000000000000000000000000000600052604160045260246000fd5b7f4e487b7100000000000000000000000000000000000000000000000000000000600052602260045260246000fd5b600060028204905060018216806104d757607f821691505b6020821081036104ea576104e9610490565b5b50919050565b60008190508160005260206000209050919050565b60006020601f8301049050919050565b600082821b905092915050565b6000600883026105527fffffffffffffffffffffffffffffffffffffffffffffffffffffffffffffffff82610515565b61055c8683610515565b95508019841693508086168417925050509392505050565b6000819050919050565b6000819050919050565b60006105a361059e61059984610574565b61057e565b610574565b9050919050565b6000819050919050565b6105bd83610588565b6105d16105c9826105aa565b848454610522565b825550505050565b600090565b6105e66105d9565b6105f18184846105b4565b505050565b5b818110156106155761060a6000826105de565b6001810190506105f7565b5050565b601f82111561065a5761062b816104f0565b61063484610505565b81016020851015610643578190505b61065761064f85610505565b8301826105f6565b50505b505050565b600082821c905092915050565b600061067d6000198460080261065f565b1980831691505092915050565b6000610696838361066c565b9150826002028217905092915050565b6106af82610456565b67ffffffffffffffff8111156106c8576106c7610461565b5b6106d282546104bf565b6106dd828285610619565b600060209050601f83116001811461071057600084156106fe578287015190505b610708858261068a565b865550610770565b601f19841661071e866104f0565b60005b8281101561074657848901518255600182019150602085019450602081019050610721565b86831015610763578489015161075f601f89168261066c565b8355505b6001600288020188555050505b505050505050565b61078181610574565b82525050565b600060208201905061079c6000830184610778565b92915050565b6125fd806107b16000396000f3fe608060405234801561001057600080fd5b50600436106100b45760003560e01c8063a87430ba11610071578063a87430ba146101a7578063aa724796146101db578063c3c5a5471461020b578063cc3d967b1461023b578063ddb7a4de1461026b578063e2842d791461029c576100b4565b806327820851146100b957806353f6ad37146100eb5780637259e0f81461010b578063885db37e1461013b5780638da5cb5b1461016b5780639be572f614610189575b600080fd5b6100d360048036038101906100ce9190611704565b6102ba565b6040516100e293929190611851565b60405180910390f35b6100f361051f565b6040516101029392919061188f565b60405180910390f35b610125600480360381019061012091906118f2565b610697565b604051610132919061192e565b60405180910390f35b6101556004803603810190610150919061196e565b6106d6565b60405161016291906119c9565b60405180910390f35b6101736107b1565b604051610180919061192e565b60405180910390f35b6101916107d5565b60405161019e91906119e4565b60405180910390f35b6101c160048036038101906101bc9190611704565b6107e2565b6040516101d29594939291906119ff565b60405180910390f35b6101f560048036038101906101f09190611b8e565b6108ed565b60405161020291906119c9565b60405180910390f35b61022560048036038101906102209190611704565b610f55565b60405161023291906119c9565b60405180910390f35b61025560048036038101906102509190611704565b610f75565b6040516102629190611cea565b60405180910390f35b61028560048036038101906102809190611d0c565b6111dd565b604051610293929190611eaa565b60405180910390f35b6102a4611597565b6040516102b19190611ee1565b60405180910390f35b600060606000600260008573ffffffffffffffffffffffffffffffffffffffff1673ffffffffffffffffffffffffffffffffffffffff16815260200190815260200160002060009054906101000a900460ff16610330576000806040518060200160405280600081525090925092509250610518565b6000600160008673ffffffffffffffffffffffffffffffffffffffff1673ffffffffffffffffffffffffffffffffffffffff1681526020019081526020016000206040518060a00160405290816000820160009054906101000a900473ffffffffffffffffffffffffffffffffffffffff1673ffffffffffffffffffffffffffffffffffffffff1673ffffffffffffffffffffffffffffffffffffffff1681526020016000820160149054906101000a900460ff1660038111156103f7576103f6611731565b5b600381111561040957610408611731565b5b8152602001600182015481526020016002820160009054906101000a900473ffffffffffffffffffffffffffffffffffffffff1673ffffffffffffffffffffffffffffffffffffffff1673ffffffffffffffffffffffffffffffffffffffff16815260200160038201805461047d90611f32565b80601f01602080910402602001604051908101604052809291908181526020018280546104a990611f32565b80156104f65780601f106104cb576101008083540402835291602001916104f6565b820191906000526020600020905b8154815290600101906020018083116104d957829003601f168201915b5050505050815250509050806020015181608001518260400151935093509350505b9193909250565b600080600080600090505b600380549050811015610691576000600160006003848154811061055157610550611f63565b5b9060005260206000200160009054906101000a900473ffffffffffffffffffffffffffffffffffffffff1673ffffffffffffffffffffffffffffffffffffffff1673ffffffffffffffffffffffffffffffffffffffff16815260200190815260200160002060000160149054906101000a900460ff169050600160038111156105dd576105dc611731565b5b8160038111156105f0576105ef611731565b5b0361060857848061060090611fc1565b955050610683565b6002600381111561061c5761061b611731565b5b81600381111561062f5761062e611731565b5b0361064757838061063f90611fc1565b945050610682565b60038081111561065a57610659611731565b5b81600381111561066d5761066c611731565b5b0361068157828061067d90611fc1565b9350505b5b5b50808060010191505061052a565b50909192565b600381815481106106a757600080fd5b906000526020600020016000915054906101000a900473ffffffffffffffffffffffffffffffffffffffff1681565b6000600260008473ffffffffffffffffffffffffffffffffffffffff1673ffffffffffffffffffffffffffffffffffffffff16815260200190815260200160002060009054906101000a900460ff1661073257600090506107ab565b81600381111561074557610744611731565b5b600160008573ffffffffffffffffffffffffffffffffffffffff1673ffffffffffffffffffffffffffffffffffffffff16815260200190815260200160002060000160149054906101000a900460ff1660038111156107a7576107a6611731565b5b1490505b92915050565b60008054906101000a900473ffffffffffffffffffffffffffffffffffffffff1681565b6000600380549050905090565b60016020528060005260406000206000915090508060000160009054906101000a900473ffffffffffffffffffffffffffffffffffffffff16908060000160149054906101000a900460ff16908060010154908060020160009054906101000a900473ffffffffffffffffffffffffffffffffffffffff169080600301805461086a90611f32565b80601f016020809104026020016040519081016040528092919081815260200182805461089690611f32565b80156108e35780601f106108b8576101008083540402835291602001916108e3565b820191906000526020600020905b8154815290600101906020018083116108c657829003601f168201915b5050505050905085565b60008060009054906101000a900473ffffffffffffffffffffffffffffffffffffffff1673ffffffffffffffffffffffffffffffffffffffff163373ffffffffffffffffffffffffffffffffffffffff1614806109bd57506001600381111561095957610958611731565b5b600160003373ffffffffffffffffffffffffffffffffffffffff1673ffffffffffffffffffffffffffffffffffffffff16815260200190815260200160002060000160149054906101000a900460ff1660038111156109bb576109ba611731565b5b145b6109fc576040517f08c379a00000000000000000000000000000000000000000000000000000000081526004016109f39061207b565b60405180910390fd5b600073ffffffffffffffffffffffffffffffffffffffff168473ffffffffffffffffffffffffffffffffffffffff1603610a6b576040517f08c379a0000000000000000000000000000000000000000000000000000000008152600401610a62906120e7565b60405180910390fd5b600260008573ffffffffffffffffffffffffffffffffffffffff1673ffffffffffffffffffffffffffffffffffffffff16815260200190815260200160002060009054906101000a900460ff1615610af8576040517f08c379a0000000000000000000000000000000000000000000000000000000008152600401610aef90612153565b60405180910390fd5b60006003811115610b0c57610b0b611731565b5b836003811115610b1f57610b1e611731565b5b03610b5f576040517f08c379a0000000000000000000000000000000000000000000000000000000008152600401610b56906121bf565b60405180910390fd5b6000825111610ba3576040517f08c379a0000000000000000000000000000000000000000000000000000000008152600401610b9a9061222b565b60405180910390fd5b60008054906101000a900473ffffffffffffffffffffffffffffffffffffffff1673ffffffffffffffffffffffffffffffffffffffff163373ffffffffffffffffffffffffffffffffffffffff1614610c8c5760026003811115610c0a57610c09611731565b5b836003811115610c1d57610c1c611731565b5b1480610c4c5750600380811115610c3757610c36611731565b5b836003811115610c4a57610c49611731565b5b145b610c8b576040517f08c379a0000000000000000000000000000000000000000000000000000000008152600401610c82906122bd565b60405180910390fd5b5b60004290506040518060a001604052808673ffffffffffffffffffffffffffffffffffffffff168152602001856003811115610ccb57610cca611731565b5b81526020018281526020013373ffffffffffffffffffffffffffffffffffffffff16815260200184815250600160008773ffffffffffffffffffffffffffffffffffffffff1673ffffffffffffffffffffffffffffffffffffffff16815260200190815260200160002060008201518160000160006101000a81548173ffffffffffffffffffffffffffffffffffffffff021916908373ffffffffffffffffffffffffffffffffffffffff16021790555060208201518160000160146101000a81548160ff02191690836003811115610da757610da6611731565b5b02179055506040820151816001015560608201518160020160006101000a81548173ffffffffffffffffffffffffffffffffffffffff021916908373ffffffffffffffffffffffffffffffffffffffff1602179055506080820151816003019081610e129190612489565b509050506001600260008773ffffffffffffffffffffffffffffffffffffffff1673ffffffffffffffffffffffffffffffffffffffff16815260200190815260200160002060006101000a81548160ff0219169083151502179055506003859080600181540180825580915050600190039060005260206000200160009091909190916101000a81548173ffffffffffffffffffffffffffffffffffffffff021916908373ffffffffffffffffffffffffffffffffffffffff1602179055503373ffffffffffffffffffffffffffffffffffffffff16846003811115610efb57610efa611731565b5b8673ffffffffffffffffffffffffffffffffffffffff167f44a129b50e111af05e3e70c5f152e3393ce704187deb9054ebcc56039e9d456084604051610f4191906119e4565b60405180910390a460019150509392505050565b60026020528060005260406000206000915054906101000a900460ff1681565b610f7d611625565b600260008373ffffffffffffffffffffffffffffffffffffffff1673ffffffffffffffffffffffffffffffffffffffff16815260200190815260200160002060009054906101000a900460ff16611009576040517f08c379a0000000000000000000000000000000000000000000000000000000008152600401611000906125a7565b60405180910390fd5b600160008373ffffffffffffffffffffffffffffffffffffffff1673ffffffffffffffffffffffffffffffffffffffff1681526020019081526020016000206040518060a00160405290816000820160009054906101000a900473ffffffffffffffffffffffffffffffffffffffff1673ffffffffffffffffffffffffffffffffffffffff1673ffffffffffffffffffffffffffffffffffffffff1681526020016000820160149054906101000a900460ff1660038111156110ce576110cd611731565b5b60038111156110e0576110df611731565b5b8152602001600182015481526020016002820160009054906101000a900473ffffffffffffffffffffffffffffffffffffffff1673ffffffffffffffffffffffffffffffffffffffff1673ffffffffffffffffffffffffffffffffffffffff16815260200160038201805461115490611f32565b80601f016020809104026020016040519081016040528092919081815260200182805461118090611f32565b80156111cd5780601f106111a2576101008083540402835291602001916111cd565b820191906000526020600020905b8154815290600101906020018083116111b057829003601f168201915b5050505050815250509050919050565b6060806000805b6003805490508110156112c55784600381111561120457611203611731565b5b600160006003848154811061121c5761121b611f63565b5b9060005260206000200160009054906101000a900473ffffffffffffffffffffffffffffffffffffffff1673ffffffffffffffffffffffffffffffffffffffff1673ffffffffffffffffffffffffffffffffffffffff16815260200190815260200160002060000160149054906101000a900460ff1660038111156112a4576112a3611731565b5b036112b85781806112b490611fc1565b9250505b80806001019150506111e4565b5060008167ffffffffffffffff8111156112e2576112e1611a63565b5b6040519080825280602002602001820160405280156113105781602001602082028036833780820191505090505b50905060008267ffffffffffffffff81111561132f5761132e611a63565b5b60405190808252806020026020018201604052801561136257816020015b606081526020019060019003908161134d5790505b5090506000805b6003805490508110156115875760006003828154811061138c5761138b611f63565b5b9060005260206000200160009054906101000a900473ffffffffffffffffffffffffffffffffffffffff1690508860038111156113cc576113cb611731565b5b600160008373ffffffffffffffffffffffffffffffffffffffff1673ffffffffffffffffffffffffffffffffffffffff16815260200190815260200160002060000160149054906101000a900460ff16600381111561142e5761142d611731565b5b03611579578085848151811061144757611446611f63565b5b602002602001019073ffffffffffffffffffffffffffffffffffffffff16908173ffffffffffffffffffffffffffffffffffffffff1681525050600160008273ffffffffffffffffffffffffffffffffffffffff1673ffffffffffffffffffffffffffffffffffffffff16815260200190815260200160002060030180546114ce90611f32565b80601f01602080910402602001604051908101604052809291908181526020018280546114fa90611f32565b80156115475780601f1061151c57610100808354040283529160200191611547565b820191906000526020600020905b81548152906001019060200180831161152a57829003601f168201915b505050505084848151811061155f5761155e611f63565b5b6020026020010181905250828061157590611fc1565b9350505b508080600101915050611369565b5082829550955050505050915091565b6060600380548060200260200160405190810160405280929190818152602001828054801561161b57602002820191906000526020600020905b8160009054906101000a900473ffffffffffffffffffffffffffffffffffffffff1673ffffffffffffffffffffffffffffffffffffffff16815260200190600101908083116115d1575b5050505050905090565b6040518060a00160405280600073ffffffffffffffffffffffffffffffffffffffff1681526020016000600381111561166157611660611731565b5b815260200160008152602001600073ffffffffffffffffffffffffffffffffffffffff168152602001606081525090565b6000604051905090565b600080fd5b600080fd5b600073ffffffffffffffffffffffffffffffffffffffff82169050919050565b60006116d1826116a6565b9050919050565b6116e1816116c6565b81146116ec57600080fd5b50565b6000813590506116fe816116d8565b92915050565b60006020828403121561171a5761171961169c565b5b6000611728848285016116ef565b91505092915050565b7f4e487b7100000000000000000000000000000000000000000000000000000000600052602160045260246000fd5b6004811061177157611770611731565b5b50565b600081905061178282611760565b919050565b600061179282611774565b9050919050565b6117a281611787565b82525050565b600081519050919050565b600082825260208201905092915050565b60005b838110156117e25780820151818401526020810190506117c7565b60008484015250505050565b6000601f19601f8301169050919050565b600061180a826117a8565b61181481856117b3565b93506118248185602086016117c4565b61182d816117ee565b840191505092915050565b6000819050919050565b61184b81611838565b82525050565b60006060820190506118666000830186611799565b818103602083015261187881856117ff565b90506118876040830184611842565b949350505050565b60006060820190506118a46000830186611842565b6118b16020830185611842565b6118be6040830184611842565b949350505050565b6118cf81611838565b81146118da57600080fd5b50565b6000813590506118ec816118c6565b92915050565b6000602082840312156119085761190761169c565b5b6000611916848285016118dd565b91505092915050565b611928816116c6565b82525050565b6000602082019050611943600083018461191f565b92915050565b6004811061195657600080fd5b50565b60008135905061196881611949565b92915050565b600080604083850312156119855761198461169c565b5b6000611993858286016116ef565b92505060206119a485828601611959565b9150509250929050565b60008115159050919050565b6119c3816119ae565b82525050565b60006020820190506119de60008301846119ba565b92915050565b60006020820190506119f96000830184611842565b92915050565b600060a082019050611a14600083018861191f565b611a216020830187611799565b611a2e6040830186611842565b611a3b606083018561191f565b8181036080830152611a4d81846117ff565b90509695505050505050565b600080fd5b600080fd5b7f4e487b7100000000000000000000000000000000000000000000000000000000600052604160045260246000fd5b611a9b826117ee565b810181811067ffffffffffffffff82111715611aba57611ab9611a63565b5b80604052505050565b6000611acd611692565b9050611ad98282611a92565b919050565b600067ffffffffffffffff821115611af957611af8611a63565b5b611b02826117ee565b9050602081019050919050565b82818337600083830152505050565b6000611b31611b2c84611ade565b611ac3565b905082815260208101848484011115611b4d57611b4c611a5e565b5b611b58848285611b0f565b509392505050565b600082601f830112611b7557611b74611a59565b5b8135611b85848260208601611b1e565b91505092915050565b600080600060608486031215611ba757611ba661169c565b5b6000611bb5868287016116ef565b9350506020611bc686828701611959565b925050604084013567ffffffffffffffff811115611be757611be66116a1565b5b611bf386828701611b60565b9150509250925092565b611c06816116c6565b82525050565b611c1581611787565b82525050565b611c2481611838565b82525050565b600082825260208201905092915050565b6000611c46826117a8565b611c508185611c2a565b9350611c608185602086016117c4565b611c69816117ee565b840191505092915050565b600060a083016000830151611c8c6000860182611bfd565b506020830151611c9f6020860182611c0c565b506040830151611cb26040860182611c1b565b506060830151611cc56060860182611bfd565b5060808301518482036080860152611cdd8282611c3b565b9150508091505092915050565b60006020820190508181036000830152611d048184611c74565b905092915050565b600060208284031215611d2257611d2161169c565b5b6000611d3084828501611959565b91505092915050565b600081519050919050565b600082825260208201905092915050565b6000819050602082019050919050565b6000611d718383611bfd565b60208301905092915050565b6000602082019050919050565b6000611d9582611d39565b611d9f8185611d44565b9350611daa83611d55565b8060005b83811015611ddb578151611dc28882611d65565b9750611dcd83611d7d565b925050600181019050611dae565b5085935050505092915050565b600081519050919050565b600082825260208201905092915050565b6000819050602082019050919050565b6000611e208383611c3b565b905092915050565b6000602082019050919050565b6000611e4082611de8565b611e4a8185611df3565b935083602082028501611e5c85611e04565b8060005b85811015611e985784840389528151611e798582611e14565b9450611e8483611e28565b925060208a01995050600181019050611e60565b50829750879550505050505092915050565b60006040820190508181036000830152611ec48185611d8a565b90508181036020830152611ed88184611e35565b90509392505050565b60006020820190508181036000830152611efb8184611d8a565b905092915050565b7f4e487b7100000000000000000000000000000000000000000000000000000000600052602260045260246000fd5b60006002820490506001821680611f4a57607f821691505b602082108103611f5d57611f5c611f03565b5b50919050565b7f4e487b7100000000000000000000000000000000000000000000000000000000600052603260045260246000fd5b7f4e487b7100000000000000000000000000000000000000000000000000000000600052601160045260246000fd5b6000611fcc82611838565b91507fffffffffffffffffffffffffffffffffffffffffffffffffffffffffffffffff8203611ffe57611ffd611f92565b5b600182019050919050565b7f4f6e6c79206f776e6572206f72206d616e616765722063616e20706572666f7260008201527f6d207468697320616374696f6e00000000000000000000000000000000000000602082015250565b6000612065602d836117b3565b915061207082612009565b604082019050919050565b6000602082019050818103600083015261209481612058565b9050919050565b7f496e76616c696420757365722061646472657373000000000000000000000000600082015250565b60006120d16014836117b3565b91506120dc8261209b565b602082019050919050565b60006020820190508181036000830152612100816120c4565b9050919050565b7f5573657220616c72656164792072656769737465726564000000000000000000600082015250565b600061213d6017836117b3565b915061214882612107565b602082019050919050565b6000602082019050818103600083015261216c81612130565b9050919050565b7f43616e6e6f742061737369676e20556e7265676973746572656420726f6c6500600082015250565b60006121a9601f836117b3565b91506121b482612173565b602082019050919050565b600060208201905081810360008301526121d88161219c565b9050919050565b7f446973706c6179206e616d652072657175697265640000000000000000000000600082015250565b60006122156015836117b3565b9150612220826121df565b602082019050919050565b6000602082019050818103600083015261224481612208565b9050919050565b7f4d616e61676572732063616e206f6e6c79206372656174652053656c6c65727360008201527f20616e6420537570706c69657273000000000000000000000000000000000000602082015250565b60006122a7602e836117b3565b91506122b28261224b565b604082019050919050565b600060208201905081810360008301526122d68161229a565b9050919050565b60008190508160005260206000209050919050565b60006020601f8301049050919050565b600082821b905092915050565b60006008830261233f7fffffffffffffffffffffffffffffffffffffffffffffffffffffffffffffffff82612302565b6123498683612302565b95508019841693508086168417925050509392505050565b6000819050919050565b600061238661238161237c84611838565b612361565b611838565b9050919050565b6000819050919050565b6123a08361236b565b6123b46123ac8261238d565b84845461230f565b825550505050565b600090565b6123c96123bc565b6123d4818484612397565b505050565b5b818110156123f8576123ed6000826123c1565b6001810190506123da565b5050565b601f82111561243d5761240e816122dd565b612417846122f2565b81016020851015612426578190505b61243a612432856122f2565b8301826123d9565b50505b505050565b600082821c905092915050565b600061246060001984600802612442565b1980831691505092915050565b6000612479838361244f565b9150826002028217905092915050565b612492826117a8565b67ffffffffffffffff8111156124ab576124aa611a63565b5b6124b58254611f32565b6124c08282856123fc565b600060209050601f8311600181146124f357600084156124e1578287015190505b6124eb858261246d565b865550612553565b601f198416612501866122dd565b60005b8281101561252957848901518255600182019150602085019450602081019050612504565b868310156125465784890151612542601f89168261244f565b8355505b6001600288020188555050505b505050505050565b7f55736572206e6f74207265676973746572656400000000000000000000000000600082015250565b60006125916013836117b3565b915061259c8261255b565b602082019050919050565b600060208201905081810360008301526125c081612584565b905091905056fea2646970667358221220b020a7f31b6e75117768f411657aa2eea52556dd0cbbde63abf2d5cc0134270664736f6c634300081c0033",
  "linkReferences": {},
  "deployedLinkReferences": {}
}