{
  "_format": "hh-sol-artifact-1",
  "contractName": "UserManagement",
  "sourceName": "contracts/UserHandling.sol",
  "abi": [
    {
      "inputs": [],
      "stateMutability": "nonpayable",
      "type": "constructor"
    },
    {
      "anonymous": false,
      "inputs": [
        {
          "indexed": true,
          "internalType": "address",
          "name": "userAddress",
          "type": "address"
        },
        {
          "indexed": true,
          "internalType": "enum UserManagement.Role",
          "name": "role",
          "type": "uint8"
        },
        {
          "indexed": true,
          "internalType": "address",
          "name": "createdBy",
          "type": "address"
        },
        {
          "indexed": false,
          "internalType": "uint256",
          "name": "timestamp",
          "type": "uint256"
        }
      ],
      "name": "UserCreated",
      "type": "event"
    },
    {
      "inputs": [
        {
          "internalType": "address",
          "name": "userAddress",
          "type": "address"
        },
        {
          "internalType": "enum UserManagement.Role",
          "name": "role",
          "type": "uint8"
        },
        {
          "internalType": "string",
          "name": "displayName",
          "type": "string"
        }
      ],
      "name": "createUser",
      "outputs": [
        {
          "internalType": "bool",
          "name": "",
          "type": "bool"
        }
      ],
      "stateMutability": "nonpayable",
      "type": "function"
    },
    {
      "inputs": [],
      "name": "getAllUsers",
      "outputs": [
        {
          "internalType": "address[]",
          "name": "userAddresses",
          "type": "address[]"
        }
      ],
      "stateMutability": "view",
      "type": "function"
    },
    {
      "inputs": [],
      "name": "getAllUsersWithDetails",
      "outputs": [
        {
          "internalType": "address[]",
          "name": "userAddresses",
          "type": "address[]"
        },
        {
          "internalType": "enum UserManagement.Role[]",
          "name": "roles",
          "type": "uint8[]"
        },
        {
          "internalType": "string[]",
          "name": "displayNames",
          "type": "string[]"
        },
        {
          "internalType": "uint256[]",
          "name": "registeredAts",
          "type": "uint256[]"
        },
        {
          "internalType": "address[]",
          "name": "registeredBys",
          "type": "address[]"
        }
      ],
      "stateMutability": "view",
      "type": "function"
    },
    {
      "inputs": [],
      "name": "getTotalUsers",
      "outputs": [
        {
          "internalType": "uint256",
          "name": "count",
          "type": "uint256"
        }
      ],
      "stateMutability": "view",
      "type": "function"
    },
    {
      "inputs": [
        {
          "internalType": "address",
          "name": "userAddress",
          "type": "address"
        }
      ],
      "name": "getUserDetails",
      "outputs": [
        {
          "components": [
            {
              "internalType": "address",
              "name": "walletAddress",
              "type": "address"
            },
            {
              "internalType": "enum UserManagement.Role",
              "name": "role",
              "type": "uint8"
            },
            {
              "internalType": "uint256",
              "name": "registeredAt",
              "type": "uint256"
            },
            {
              "internalType": "address",
              "name": "registeredBy",
              "type": "address"
            },
            {
              "internalType": "string",
              "name": "displayName",
              "type": "string"
            }
          ],
          "internalType": "struct UserManagement.User",
          "name": "user",
          "type": "tuple"
        }
      ],
      "stateMutability": "view",
      "type": "function"
    },
    {
      "inputs": [
        {
          "internalType": "address",
          "name": "userAddress",
          "type": "address"
        }
      ],
      "name": "getUserRole",
      "outputs": [
        {
          "internalType": "enum UserManagement.Role",
          "name": "role",
          "type": "uint8"
        },
        {
          "internalType": "string",
          "name": "displayName",
          "type": "string"
        },
        {
          "internalType": "uint256",
          "name": "registeredAt",
          "type": "uint256"
        }
      ],
      "stateMutability": "view",
      "type": "function"
    },
    {
      "inputs": [],
      "name": "getUserStats",
      "outputs": [
        {
          "internalType": "uint256",
          "name": "managers",
          "type": "uint256"
        },
        {
          "internalType": "uint256",
          "name": "sellers",
          "type": "uint256"
        },
        {
          "internalType": "uint256",
          "name": "suppliers",
          "type": "uint256"
        }
      ],
      "stateMutability": "view",
      "type": "function"
    },
    {
      "inputs": [
        {
          "internalType": "enum UserManagement.Role",
          "name": "targetRole",
          "type": "uint8"
        }
      ],
      "name": "getUsersByRole",
      "outputs": [
        {
          "internalType": "address[]",
          "name": "userAddresses",
          "type": "address[]"
        },
        {
          "internalType": "string[]",
          "name": "userNames",
          "type": "string[]"
        }
      ],
      "stateMutability": "view",
      "type": "function"
    },
    {
      "inputs": [
        {
          "internalType": "address",
          "name": "",
          "type": "address"
        }
      ],
      "name": "isRegistered",
      "outputs": [
        {
          "internalType": "bool",
          "name": "",
          "type": "bool"
        }
      ],
      "stateMutability": "view",
      "type": "function"
    },
    {
      "inputs": [],
      "name": "owner",
      "outputs": [
        {
          "internalType": "address",
          "name": "",
          "type": "address"
        }
      ],
      "stateMutability": "view",
      "type": "function"
    },
    {
      "inputs": [
        {
          "internalType": "uint256",
          "name": "",
          "type": "uint256"
        }
      ],
      "name": "registeredUsers",
      "outputs": [
        {
          "internalType": "address",
          "name": "",
          "type": "address"
        }
      ],
      "stateMutability": "view",
      "type": "function"
    },
    {
      "inputs": [
        {
          "internalType": "address",
          "name": "userAddress",
          "type": "address"
        },
        {
          "internalType": "enum UserManagement.Role",
          "name": "requiredRole",
          "type": "uint8"
        }
      ],
      "name": "result",
      "outputs": [
        {
          "internalType": "bool",
          "name": "hasRole",
          "type": "bool"
        }
      ],
      "stateMutability": "view",
      "type": "function"
    },
    {
      "inputs": [
        {
          "internalType": "address",
          "name": "",
          "type": "address"
        }
      ],
      "name": "users",
      "outputs": [
        {
          "internalType": "address",
          "name": "walletAddress",
          "type": "address"
        },
        {
          "internalType": "enum UserManagement.Role",
          "name": "role",
          "type": "uint8"
        },
        {
          "internalType": "uint256",
          "name": "registeredAt",
          "type": "uint256"
        },
        {
          "internalType": "address",
          "name": "registeredBy",
          "type": "address"
        },
        {
          "internalType": "string",
          "name": "displayName",
          "type": "string"
        }
      ],
      "stateMutability": "view",
      "type": "function"
    }
  ],
  "bytecode": "0x608060405234801561001057600080fd5b50336000806101000a81548173ffffffffffffffffffffffffffffffffffffffff021916908373ffffffffffffffffffffffffffffffffffffffff1602179055506040518060a0016040528060008054906101000a900473ffffffffffffffffffffffffffffffffffffffff1673ffffffffffffffffffffffffffffffffffffffff168152602001600160038111156100ac576100ab610427565b5b815260200142815260200160008054906101000a900473ffffffffffffffffffffffffffffffffffffffff1673ffffffffffffffffffffffffffffffffffffffff1681526020016040518060400160405280600c81526020017f53797374656d204f776e65720000000000000000000000000000000000000000815250815250600160008060009054906101000a900473ffffffffffffffffffffffffffffffffffffffff1673ffffffffffffffffffffffffffffffffffffffff1673ffffffffffffffffffffffffffffffffffffffff16815260200190815260200160002060008201518160000160006101000a81548173ffffffffffffffffffffffffffffffffffffffff021916908373ffffffffffffffffffffffffffffffffffffffff16021790555060208201518160000160146101000a81548160ff021916908360038111156101fe576101fd610427565b5b02179055506040820151816001015560608201518160020160006101000a81548173ffffffffffffffffffffffffffffffffffffffff021916908373ffffffffffffffffffffffffffffffffffffffff160217905550608082015181600301908161026991906106a6565b509050506001600260008060009054906101000a900473ffffffffffffffffffffffffffffffffffffffff1673ffffffffffffffffffffffffffffffffffffffff1673ffffffffffffffffffffffffffffffffffffffff16815260200190815260200160002060006101000a81548160ff021916908315150217905550600360008054906101000a900473ffffffffffffffffffffffffffffffffffffffff169080600181540180825580915050600190039060005260206000200160009091909190916101000a81548173ffffffffffffffffffffffffffffffffffffffff021916908373ffffffffffffffffffffffffffffffffffffffff16021790555060008054906101000a900473ffffffffffffffffffffffffffffffffffffffff1673ffffffffffffffffffffffffffffffffffffffff16600160038111156103b4576103b3610427565b5b60008054906101000a900473ffffffffffffffffffffffffffffffffffffffff1673ffffffffffffffffffffffffffffffffffffffff167f44a129b50e111af05e3e70c5f152e3393ce704187deb9054ebcc56039e9d45604260405161041a9190610787565b60405180910390a46107a2565b7f4e487b7100000000000000000000000000000000000000000000000000000000600052602160045260246000fd5b600081519050919050565b7f4e487b7100000000000000000000000000000000000000000000000000000000600052604160045260246000fd5b7f4e487b7100000000000000000000000000000000000000000000000000000000600052602260045260246000fd5b600060028204905060018216806104d757607f821691505b6020821081036104ea576104e9610490565b5b50919050565b60008190508160005260206000209050919050565b60006020601f8301049050919050565b600082821b905092915050565b6000600883026105527fffffffffffffffffffffffffffffffffffffffffffffffffffffffffffffffff82610515565b61055c8683610515565b95508019841693508086168417925050509392505050565b6000819050919050565b6000819050919050565b60006105a361059e61059984610574565b61057e565b610574565b9050919050565b6000819050919050565b6105bd83610588565b6105d16105c9826105aa565b848454610522565b825550505050565b600090565b6105e66105d9565b6105f18184846105b4565b505050565b5b818110156106155761060a6000826105de565b6001810190506105f7565b5050565b601f82111561065a5761062b816104f0565b61063484610505565b81016020851015610643578190505b61065761064f85610505565b8301826105f6565b50505b505050565b600082821c905092915050565b600061067d6000198460080261065f565b1980831691505092915050565b6000610696838361066c565b9150826002028217905092915050565b6106af82610456565b67ffffffffffffffff8111156106c8576106c7610461565b5b6106d282546104bf565b6106dd828285610619565b600060209050601f83116001811461071057600084156106fe578287015190505b610708858261068a565b865550610770565b601f19841661071e866104f0565b60005b8281101561074657848901518255600182019150602085019450602081019050610721565b86831015610763578489015161075f601f89168261066c565b8355505b6001600288020188555050505b505050505050565b61078181610574565b82525050565b600060208201905061079c6000830184610778565b92915050565b612d04806107b16000396000f3fe608060405234801561001057600080fd5b50600436106100cf5760003560e01c80639be572f61161008c578063c3c5a54711610066578063c3c5a54714610248578063cc3d967b14610278578063ddb7a4de146102a8578063e2842d79146102d9576100cf565b80639be572f6146101c6578063a87430ba146101e4578063aa72479614610218576100cf565b806327820851146100d457806353f6ad37146101065780637259e0f8146101265780637d0be82514610156578063885db37e146101785780638da5cb5b146101a8575b600080fd5b6100ee60048036038101906100e99190611c37565b6102f7565b6040516100fd93929190611d84565b60405180910390f35b61010e61055c565b60405161011d93929190611dc2565b60405180910390f35b610140600480360381019061013b9190611e25565b6106d4565b60405161014d9190611e61565b60405180910390f35b61015e610713565b60405161016f9594939291906121c2565b60405180910390f35b610192600480360381019061018d919061225d565b610c09565b60405161019f91906122b8565b60405180910390f35b6101b0610ce4565b6040516101bd9190611e61565b60405180910390f35b6101ce610d08565b6040516101db91906122d3565b60405180910390f35b6101fe60048036038101906101f99190611c37565b610d15565b60405161020f9594939291906122ee565b60405180910390f35b610232600480360381019061022d919061247d565b610e20565b60405161023f91906122b8565b60405180910390f35b610262600480360381019061025d9190611c37565b611488565b60405161026f91906122b8565b60405180910390f35b610292600480360381019061028d9190611c37565b6114a8565b60405161029f9190612562565b60405180910390f35b6102c260048036038101906102bd9190612584565b611710565b6040516102d09291906125b1565b60405180910390f35b6102e1611aca565b6040516102ee91906125e8565b60405180910390f35b600060606000600260008573ffffffffffffffffffffffffffffffffffffffff1673ffffffffffffffffffffffffffffffffffffffff16815260200190815260200160002060009054906101000a900460ff1661036d576000806040518060200160405280600081525090925092509250610555565b6000600160008673ffffffffffffffffffffffffffffffffffffffff1673ffffffffffffffffffffffffffffffffffffffff1681526020019081526020016000206040518060a00160405290816000820160009054906101000a900473ffffffffffffffffffffffffffffffffffffffff1673ffffffffffffffffffffffffffffffffffffffff1673ffffffffffffffffffffffffffffffffffffffff1681526020016000820160149054906101000a900460ff16600381111561043457610433611c64565b5b600381111561044657610445611c64565b5b8152602001600182015481526020016002820160009054906101000a900473ffffffffffffffffffffffffffffffffffffffff1673ffffffffffffffffffffffffffffffffffffffff1673ffffffffffffffffffffffffffffffffffffffff1681526020016003820180546104ba90612639565b80601f01602080910402602001604051908101604052809291908181526020018280546104e690612639565b80156105335780601f1061050857610100808354040283529160200191610533565b820191906000526020600020905b81548152906001019060200180831161051657829003601f168201915b5050505050815250509050806020015181608001518260400151935093509350505b9193909250565b600080600080600090505b6003805490508110156106ce576000600160006003848154811061058e5761058d61266a565b5b9060005260206000200160009054906101000a900473ffffffffffffffffffffffffffffffffffffffff1673ffffffffffffffffffffffffffffffffffffffff1673ffffffffffffffffffffffffffffffffffffffff16815260200190815260200160002060000160149054906101000a900460ff1690506001600381111561061a57610619611c64565b5b81600381111561062d5761062c611c64565b5b0361064557848061063d906126c8565b9550506106c0565b6002600381111561065957610658611c64565b5b81600381111561066c5761066b611c64565b5b0361068457838061067c906126c8565b9450506106bf565b60038081111561069757610696611c64565b5b8160038111156106aa576106a9611c64565b5b036106be5782806106ba906126c8565b9350505b5b5b508080600101915050610567565b50909192565b600381815481106106e457600080fd5b906000526020600020016000915054906101000a900473ffffffffffffffffffffffffffffffffffffffff1681565b6060806060806060600060038054905090508067ffffffffffffffff81111561073f5761073e612352565b5b60405190808252806020026020018201604052801561076d5781602001602082028036833780820191505090505b5095508067ffffffffffffffff81111561078a57610789612352565b5b6040519080825280602002602001820160405280156107b85781602001602082028036833780820191505090505b5094508067ffffffffffffffff8111156107d5576107d4612352565b5b60405190808252806020026020018201604052801561080857816020015b60608152602001906001900390816107f35790505b5093508067ffffffffffffffff81111561082557610824612352565b5b6040519080825280602002602001820160405280156108535781602001602082028036833780820191505090505b5092508067ffffffffffffffff8111156108705761086f612352565b5b60405190808252806020026020018201604052801561089e5781602001602082028036833780820191505090505b50915060005b81811015610c00576000600382815481106108c2576108c161266a565b5b9060005260206000200160009054906101000a900473ffffffffffffffffffffffffffffffffffffffff1690506000600160008373ffffffffffffffffffffffffffffffffffffffff1673ffffffffffffffffffffffffffffffffffffffff1681526020019081526020016000206040518060a00160405290816000820160009054906101000a900473ffffffffffffffffffffffffffffffffffffffff1673ffffffffffffffffffffffffffffffffffffffff1673ffffffffffffffffffffffffffffffffffffffff1681526020016000820160149054906101000a900460ff1660038111156109b6576109b5611c64565b5b60038111156109c8576109c7611c64565b5b8152602001600182015481526020016002820160009054906101000a900473ffffffffffffffffffffffffffffffffffffffff1673ffffffffffffffffffffffffffffffffffffffff1673ffffffffffffffffffffffffffffffffffffffff168152602001600382018054610a3c90612639565b80601f0160208091040260200160405190810160405280929190818152602001828054610a6890612639565b8015610ab55780601f10610a8a57610100808354040283529160200191610ab5565b820191906000526020600020905b815481529060010190602001808311610a9857829003601f168201915b505050505081525050905081898481518110610ad457610ad361266a565b5b602002602001019073ffffffffffffffffffffffffffffffffffffffff16908173ffffffffffffffffffffffffffffffffffffffff16815250508060200151888481518110610b2657610b2561266a565b5b60200260200101906003811115610b4057610b3f611c64565b5b90816003811115610b5457610b53611c64565b5b815250508060800151878481518110610b7057610b6f61266a565b5b60200260200101819052508060400151868481518110610b9357610b9261266a565b5b6020026020010181815250508060600151858481518110610bb757610bb661266a565b5b602002602001019073ffffffffffffffffffffffffffffffffffffffff16908173ffffffffffffffffffffffffffffffffffffffff1681525050505080806001019150506108a4565b50509091929394565b6000600260008473ffffffffffffffffffffffffffffffffffffffff1673ffffffffffffffffffffffffffffffffffffffff16815260200190815260200160002060009054906101000a900460ff16610c655760009050610cde565b816003811115610c7857610c77611c64565b5b600160008573ffffffffffffffffffffffffffffffffffffffff1673ffffffffffffffffffffffffffffffffffffffff16815260200190815260200160002060000160149054906101000a900460ff166003811115610cda57610cd9611c64565b5b1490505b92915050565b60008054906101000a900473ffffffffffffffffffffffffffffffffffffffff1681565b6000600380549050905090565b60016020528060005260406000206000915090508060000160009054906101000a900473ffffffffffffffffffffffffffffffffffffffff16908060000160149054906101000a900460ff16908060010154908060020160009054906101000a900473ffffffffffffffffffffffffffffffffffffffff1690806003018054610d9d90612639565b80601f0160208091040260200160405190810160405280929190818152602001828054610dc990612639565b8015610e165780601f10610deb57610100808354040283529160200191610e16565b820191906000526020600020905b815481529060010190602001808311610df957829003601f168201915b5050505050905085565b60008060009054906101000a900473ffffffffffffffffffffffffffffffffffffffff1673ffffffffffffffffffffffffffffffffffffffff163373ffffffffffffffffffffffffffffffffffffffff161480610ef0575060016003811115610e8c57610e8b611c64565b5b600160003373ffffffffffffffffffffffffffffffffffffffff1673ffffffffffffffffffffffffffffffffffffffff16815260200190815260200160002060000160149054906101000a900460ff166003811115610eee57610eed611c64565b5b145b610f2f576040517f08c379a0000000000000000000000000000000000000000000000000000000008152600401610f2690612782565b60405180910390fd5b600073ffffffffffffffffffffffffffffffffffffffff168473ffffffffffffffffffffffffffffffffffffffff1603610f9e576040517f08c379a0000000000000000000000000000000000000000000000000000000008152600401610f95906127ee565b60405180910390fd5b600260008573ffffffffffffffffffffffffffffffffffffffff1673ffffffffffffffffffffffffffffffffffffffff16815260200190815260200160002060009054906101000a900460ff161561102b576040517f08c379a00000000000000000000000000000000000000000000000000000000081526004016110229061285a565b60405180910390fd5b6000600381111561103f5761103e611c64565b5b83600381111561105257611051611c64565b5b03611092576040517f08c379a0000000000000000000000000000000000000000000000000000000008152600401611089906128c6565b60405180910390fd5b60008251116110d6576040517f08c379a00000000000000000000000000000000000000000000000000000000081526004016110cd90612932565b60405180910390fd5b60008054906101000a900473ffffffffffffffffffffffffffffffffffffffff1673ffffffffffffffffffffffffffffffffffffffff163373ffffffffffffffffffffffffffffffffffffffff16146111bf576002600381111561113d5761113c611c64565b5b8360038111156111505761114f611c64565b5b148061117f575060038081111561116a57611169611c64565b5b83600381111561117d5761117c611c64565b5b145b6111be576040517f08c379a00000000000000000000000000000000000000000000000000000000081526004016111b5906129c4565b60405180910390fd5b5b60004290506040518060a001604052808673ffffffffffffffffffffffffffffffffffffffff1681526020018560038111156111fe576111fd611c64565b5b81526020018281526020013373ffffffffffffffffffffffffffffffffffffffff16815260200184815250600160008773ffffffffffffffffffffffffffffffffffffffff1673ffffffffffffffffffffffffffffffffffffffff16815260200190815260200160002060008201518160000160006101000a81548173ffffffffffffffffffffffffffffffffffffffff021916908373ffffffffffffffffffffffffffffffffffffffff16021790555060208201518160000160146101000a81548160ff021916908360038111156112da576112d9611c64565b5b02179055506040820151816001015560608201518160020160006101000a81548173ffffffffffffffffffffffffffffffffffffffff021916908373ffffffffffffffffffffffffffffffffffffffff16021790555060808201518160030190816113459190612b90565b509050506001600260008773ffffffffffffffffffffffffffffffffffffffff1673ffffffffffffffffffffffffffffffffffffffff16815260200190815260200160002060006101000a81548160ff0219169083151502179055506003859080600181540180825580915050600190039060005260206000200160009091909190916101000a81548173ffffffffffffffffffffffffffffffffffffffff021916908373ffffffffffffffffffffffffffffffffffffffff1602179055503373ffffffffffffffffffffffffffffffffffffffff1684600381111561142e5761142d611c64565b5b8673ffffffffffffffffffffffffffffffffffffffff167f44a129b50e111af05e3e70c5f152e3393ce704187deb9054ebcc56039e9d45608460405161147491906122d3565b60405180910390a460019150509392505050565b60026020528060005260406000206000915054906101000a900460ff1681565b6114b0611b58565b600260008373ffffffffffffffffffffffffffffffffffffffff1673ffffffffffffffffffffffffffffffffffffffff16815260200190815260200160002060009054906101000a900460ff1661153c576040517f08c379a000000000000000000000000000000000000000000000000000000000815260040161153390612cae565b60405180910390fd5b600160008373ffffffffffffffffffffffffffffffffffffffff1673ffffffffffffffffffffffffffffffffffffffff1681526020019081526020016000206040518060a00160405290816000820160009054906101000a900473ffffffffffffffffffffffffffffffffffffffff1673ffffffffffffffffffffffffffffffffffffffff1673ffffffffffffffffffffffffffffffffffffffff1681526020016000820160149054906101000a900460ff16600381111561160157611600611c64565b5b600381111561161357611612611c64565b5b8152602001600182015481526020016002820160009054906101000a900473ffffffffffffffffffffffffffffffffffffffff1673ffffffffffffffffffffffffffffffffffffffff1673ffffffffffffffffffffffffffffffffffffffff16815260200160038201805461168790612639565b80601f01602080910402602001604051908101604052809291908181526020018280546116b390612639565b80156117005780601f106116d557610100808354040283529160200191611700565b820191906000526020600020905b8154815290600101906020018083116116e357829003601f168201915b5050505050815250509050919050565b6060806000805b6003805490508110156117f85784600381111561173757611736611c64565b5b600160006003848154811061174f5761174e61266a565b5b9060005260206000200160009054906101000a900473ffffffffffffffffffffffffffffffffffffffff1673ffffffffffffffffffffffffffffffffffffffff1673ffffffffffffffffffffffffffffffffffffffff16815260200190815260200160002060000160149054906101000a900460ff1660038111156117d7576117d6611c64565b5b036117eb5781806117e7906126c8565b9250505b8080600101915050611717565b5060008167ffffffffffffffff81111561181557611814612352565b5b6040519080825280602002602001820160405280156118435781602001602082028036833780820191505090505b50905060008267ffffffffffffffff81111561186257611861612352565b5b60405190808252806020026020018201604052801561189557816020015b60608152602001906001900390816118805790505b5090506000805b600380549050811015611aba576000600382815481106118bf576118be61266a565b5b9060005260206000200160009054906101000a900473ffffffffffffffffffffffffffffffffffffffff1690508860038111156118ff576118fe611c64565b5b600160008373ffffffffffffffffffffffffffffffffffffffff1673ffffffffffffffffffffffffffffffffffffffff16815260200190815260200160002060000160149054906101000a900460ff16600381111561196157611960611c64565b5b03611aac578085848151811061197a5761197961266a565b5b602002602001019073ffffffffffffffffffffffffffffffffffffffff16908173ffffffffffffffffffffffffffffffffffffffff1681525050600160008273ffffffffffffffffffffffffffffffffffffffff1673ffffffffffffffffffffffffffffffffffffffff1681526020019081526020016000206003018054611a0190612639565b80601f0160208091040260200160405190810160405280929190818152602001828054611a2d90612639565b8015611a7a5780601f10611a4f57610100808354040283529160200191611a7a565b820191906000526020600020905b815481529060010190602001808311611a5d57829003601f168201915b5050505050848481518110611a9257611a9161266a565b5b60200260200101819052508280611aa8906126c8565b9350505b50808060010191505061189c565b5082829550955050505050915091565b60606003805480602002602001604051908101604052809291908181526020018280548015611b4e57602002820191906000526020600020905b8160009054906101000a900473ffffffffffffffffffffffffffffffffffffffff1673ffffffffffffffffffffffffffffffffffffffff1681526020019060010190808311611b04575b5050505050905090565b6040518060a00160405280600073ffffffffffffffffffffffffffffffffffffffff16815260200160006003811115611b9457611b93611c64565b5b815260200160008152602001600073ffffffffffffffffffffffffffffffffffffffff168152602001606081525090565b6000604051905090565b600080fd5b600080fd5b600073ffffffffffffffffffffffffffffffffffffffff82169050919050565b6000611c0482611bd9565b9050919050565b611c1481611bf9565b8114611c1f57600080fd5b50565b600081359050611c3181611c0b565b92915050565b600060208284031215611c4d57611c4c611bcf565b5b6000611c5b84828501611c22565b91505092915050565b7f4e487b7100000000000000000000000000000000000000000000000000000000600052602160045260246000fd5b60048110611ca457611ca3611c64565b5b50565b6000819050611cb582611c93565b919050565b6000611cc582611ca7565b9050919050565b611cd581611cba565b82525050565b600081519050919050565b600082825260208201905092915050565b60005b83811015611d15578082015181840152602081019050611cfa565b60008484015250505050565b6000601f19601f8301169050919050565b6000611d3d82611cdb565b611d478185611ce6565b9350611d57818560208601611cf7565b611d6081611d21565b840191505092915050565b6000819050919050565b611d7e81611d6b565b82525050565b6000606082019050611d996000830186611ccc565b8181036020830152611dab8185611d32565b9050611dba6040830184611d75565b949350505050565b6000606082019050611dd76000830186611d75565b611de46020830185611d75565b611df16040830184611d75565b949350505050565b611e0281611d6b565b8114611e0d57600080fd5b50565b600081359050611e1f81611df9565b92915050565b600060208284031215611e3b57611e3a611bcf565b5b6000611e4984828501611e10565b91505092915050565b611e5b81611bf9565b82525050565b6000602082019050611e766000830184611e52565b92915050565b600081519050919050565b600082825260208201905092915050565b6000819050602082019050919050565b611eb181611bf9565b82525050565b6000611ec38383611ea8565b60208301905092915050565b6000602082019050919050565b6000611ee782611e7c565b611ef18185611e87565b9350611efc83611e98565b8060005b83811015611f2d578151611f148882611eb7565b9750611f1f83611ecf565b925050600181019050611f00565b5085935050505092915050565b600081519050919050565b600082825260208201905092915050565b6000819050602082019050919050565b611f6f81611cba565b82525050565b6000611f818383611f66565b60208301905092915050565b6000602082019050919050565b6000611fa582611f3a565b611faf8185611f45565b9350611fba83611f56565b8060005b83811015611feb578151611fd28882611f75565b9750611fdd83611f8d565b925050600181019050611fbe565b5085935050505092915050565b600081519050919050565b600082825260208201905092915050565b6000819050602082019050919050565b600082825260208201905092915050565b600061204082611cdb565b61204a8185612024565b935061205a818560208601611cf7565b61206381611d21565b840191505092915050565b600061207a8383612035565b905092915050565b6000602082019050919050565b600061209a82611ff8565b6120a48185612003565b9350836020820285016120b685612014565b8060005b858110156120f257848403895281516120d3858261206e565b94506120de83612082565b925060208a019950506001810190506120ba565b50829750879550505050505092915050565b600081519050919050565b600082825260208201905092915050565b6000819050602082019050919050565b61213981611d6b565b82525050565b600061214b8383612130565b60208301905092915050565b6000602082019050919050565b600061216f82612104565b612179818561210f565b935061218483612120565b8060005b838110156121b557815161219c888261213f565b97506121a783612157565b925050600181019050612188565b5085935050505092915050565b600060a08201905081810360008301526121dc8188611edc565b905081810360208301526121f08187611f9a565b90508181036040830152612204818661208f565b905081810360608301526122188185612164565b9050818103608083015261222c8184611edc565b90509695505050505050565b6004811061224557600080fd5b50565b60008135905061225781612238565b92915050565b6000806040838503121561227457612273611bcf565b5b600061228285828601611c22565b925050602061229385828601612248565b9150509250929050565b60008115159050919050565b6122b28161229d565b82525050565b60006020820190506122cd60008301846122a9565b92915050565b60006020820190506122e86000830184611d75565b92915050565b600060a0820190506123036000830188611e52565b6123106020830187611ccc565b61231d6040830186611d75565b61232a6060830185611e52565b818103608083015261233c8184611d32565b90509695505050505050565b600080fd5b600080fd5b7f4e487b7100000000000000000000000000000000000000000000000000000000600052604160045260246000fd5b61238a82611d21565b810181811067ffffffffffffffff821117156123a9576123a8612352565b5b80604052505050565b60006123bc611bc5565b90506123c88282612381565b919050565b600067ffffffffffffffff8211156123e8576123e7612352565b5b6123f182611d21565b9050602081019050919050565b82818337600083830152505050565b600061242061241b846123cd565b6123b2565b90508281526020810184848401111561243c5761243b61234d565b5b6124478482856123fe565b509392505050565b600082601f83011261246457612463612348565b5b813561247484826020860161240d565b91505092915050565b60008060006060848603121561249657612495611bcf565b5b60006124a486828701611c22565b93505060206124b586828701612248565b925050604084013567ffffffffffffffff8111156124d6576124d5611bd4565b5b6124e28682870161244f565b9150509250925092565b600060a0830160008301516125046000860182611ea8565b5060208301516125176020860182611f66565b50604083015161252a6040860182612130565b50606083015161253d6060860182611ea8565b50608083015184820360808601526125558282612035565b9150508091505092915050565b6000602082019050818103600083015261257c81846124ec565b905092915050565b60006020828403121561259a57612599611bcf565b5b60006125a884828501612248565b91505092915050565b600060408201905081810360008301526125cb8185611edc565b905081810360208301526125df818461208f565b90509392505050565b600060208201905081810360008301526126028184611edc565b905092915050565b7f4e487b7100000000000000000000000000000000000000000000000000000000600052602260045260246000fd5b6000600282049050600182168061265157607f821691505b6020821081036126645761266361260a565b5b50919050565b7f4e487b7100000000000000000000000000000000000000000000000000000000600052603260045260246000fd5b7f4e487b7100000000000000000000000000000000000000000000000000000000600052601160045260246000fd5b60006126d382611d6b565b91507fffffffffffffffffffffffffffffffffffffffffffffffffffffffffffffffff820361270557612704612699565b5b600182019050919050565b7f4f6e6c79206f776e6572206f72206d616e616765722063616e20706572666f7260008201527f6d207468697320616374696f6e00000000000000000000000000000000000000602082015250565b600061276c602d83611ce6565b915061277782612710565b604082019050919050565b6000602082019050818103600083015261279b8161275f565b9050919050565b7f496e76616c696420757365722061646472657373000000000000000000000000600082015250565b60006127d8601483611ce6565b91506127e3826127a2565b602082019050919050565b60006020820190508181036000830152612807816127cb565b9050919050565b7f5573657220616c72656164792072656769737465726564000000000000000000600082015250565b6000612844601783611ce6565b915061284f8261280e565b602082019050919050565b6000602082019050818103600083015261287381612837565b9050919050565b7f43616e6e6f742061737369676e20556e7265676973746572656420726f6c6500600082015250565b60006128b0601f83611ce6565b91506128bb8261287a565b602082019050919050565b600060208201905081810360008301526128df816128a3565b9050919050565b7f446973706c6179206e616d652072657175697265640000000000000000000000600082015250565b600061291c601583611ce6565b9150612927826128e6565b602082019050919050565b6000602082019050818103600083015261294b8161290f565b9050919050565b7f4d616e61676572732063616e206f6e6c79206372656174652053656c6c65727360008201527f20616e6420537570706c69657273000000000000000000000000000000000000602082015250565b60006129ae602e83611ce6565b91506129b982612952565b604082019050919050565b600060208201905081810360008301526129dd816129a1565b9050919050565b60008190508160005260206000209050919050565b60006020601f8301049050919050565b600082821b905092915050565b600060088302612a467fffffffffffffffffffffffffffffffffffffffffffffffffffffffffffffffff82612a09565b612a508683612a09565b95508019841693508086168417925050509392505050565b6000819050919050565b6000612a8d612a88612a8384611d6b565b612a68565b611d6b565b9050919050565b6000819050919050565b612aa783612a72565b612abb612ab382612a94565b848454612a16565b825550505050565b600090565b612ad0612ac3565b612adb818484612a9e565b505050565b5b81811015612aff57612af4600082612ac8565b600181019050612ae1565b5050565b601f821115612b4457612b15816129e4565b612b1e846129f9565b81016020851015612b2d578190505b612b41612b39856129f9565b830182612ae0565b50505b505050565b600082821c905092915050565b6000612b6760001984600802612b49565b1980831691505092915050565b6000612b808383612b56565b9150826002028217905092915050565b612b9982611cdb565b67ffffffffffffffff811115612bb257612bb1612352565b5b612bbc8254612639565b612bc7828285612b03565b600060209050601f831160018114612bfa5760008415612be8578287015190505b612bf28582612b74565b865550612c5a565b601f198416612c08866129e4565b60005b82811015612c3057848901518255600182019150602085019450602081019050612c0b565b86831015612c4d5784890151612c49601f891682612b56565b8355505b6001600288020188555050505b505050505050565b7f55736572206e6f74207265676973746572656400000000000000000000000000600082015250565b6000612c98601383611ce6565b9150612ca382612c62565b602082019050919050565b60006020820190508181036000830152612cc781612c8b565b905091905056fea2646970667358221220dd00795c4b2b2d693067c963bced51d4567c2b78eb9c68f5c1ee3ca2d2d4367364736f6c634300081c0033",
  "linkReferences": {},
  "deployedLinkReferences": {}
}